{
  "_format": "hh-sol-artifact-1",
  "contractName": "RemoteBridge",
  "sourceName": "contracts/RemoteBridge.sol",
  "abi": [
    {
      "inputs": [
        {
          "internalType": "address",
          "name": "proposer_",
          "type": "address"
        },
        {
          "internalType": "contract IToken",
          "name": "token_",
          "type": "address"
        },
        {
          "internalType": "uint256",
          "name": "voteThreshold_",
          "type": "uint256"
        }
      ],
      "stateMutability": "nonpayable",
      "type": "constructor"
    },
    {
      "anonymous": false,
      "inputs": [
        {
          "indexed": false,
          "internalType": "address",
          "name": "sender",
          "type": "address"
        },
        {
          "indexed": false,
          "internalType": "address",
          "name": "recepient",
          "type": "address"
        },
        {
          "indexed": false,
          "internalType": "uint256",
          "name": "amount",
          "type": "uint256"
        },
        {
          "indexed": false,
          "internalType": "uint256",
          "name": "nonce",
          "type": "uint256"
        },
        {
          "indexed": false,
          "internalType": "uint256",
          "name": "chainID",
          "type": "uint256"
        }
      ],
      "name": "DepositEvent",
      "type": "event"
    },
    {
      "anonymous": false,
      "inputs": [
        {
          "indexed": false,
          "internalType": "bytes32",
          "name": "proposalID",
          "type": "bytes32"
        },
        {
          "indexed": false,
          "internalType": "address",
          "name": "recepient",
          "type": "address"
        },
        {
          "indexed": false,
          "internalType": "bytes32",
          "name": "txHash",
          "type": "bytes32"
        },
        {
          "indexed": false,
          "internalType": "uint256",
          "name": "chainID",
          "type": "uint256"
        },
        {
          "indexed": false,
          "internalType": "uint256",
          "name": "nonce",
          "type": "uint256"
        },
        {
          "indexed": false,
          "internalType": "uint256",
          "name": "amount",
          "type": "uint256"
        }
      ],
      "name": "ProposalEvent",
      "type": "event"
    },
    {
      "anonymous": false,
      "inputs": [
        {
          "indexed": false,
          "internalType": "bytes32",
          "name": "proposalID",
          "type": "bytes32"
        }
      ],
      "name": "ProposalExecuted",
      "type": "event"
    },
    {
      "anonymous": false,
      "inputs": [
        {
          "indexed": false,
          "internalType": "bytes32",
          "name": "proposalID",
          "type": "bytes32"
        }
      ],
      "name": "ProposalVote",
      "type": "event"
    },
    {
      "inputs": [
        {
          "internalType": "uint256",
          "name": "chainID",
          "type": "uint256"
        }
      ],
      "name": "addChainID",
      "outputs": [],
      "stateMutability": "nonpayable",
      "type": "function"
    },
    {
      "inputs": [
        {
          "internalType": "address",
          "name": "validator",
          "type": "address"
        }
      ],
      "name": "addValidator",
      "outputs": [],
      "stateMutability": "nonpayable",
      "type": "function"
    },
    {
      "inputs": [],
      "name": "chainId",
      "outputs": [
        {
          "internalType": "uint256",
          "name": "",
          "type": "uint256"
        }
      ],
      "stateMutability": "view",
      "type": "function"
    },
    {
      "inputs": [
        {
          "internalType": "address",
          "name": "recepient",
          "type": "address"
        },
        {
          "internalType": "uint256",
          "name": "amount",
          "type": "uint256"
        },
        {
          "internalType": "uint256",
          "name": "chainID",
          "type": "uint256"
        }
      ],
      "name": "deposit",
      "outputs": [],
      "stateMutability": "nonpayable",
      "type": "function"
    },
    {
      "inputs": [
        {
          "internalType": "bytes32",
          "name": "proposalId",
          "type": "bytes32"
        }
      ],
      "name": "getProposal",
      "outputs": [
        {
          "components": [
            {
              "internalType": "bytes32",
              "name": "txHash",
              "type": "bytes32"
            },
            {
              "internalType": "address",
              "name": "depositor",
              "type": "address"
            },
            {
              "internalType": "address",
              "name": "receiver",
              "type": "address"
            },
            {
              "internalType": "uint256",
              "name": "amount",
              "type": "uint256"
            },
            {
              "internalType": "uint256",
              "name": "chainID",
              "type": "uint256"
            },
            {
              "internalType": "uint256",
              "name": "nonce",
              "type": "uint256"
            },
            {
              "internalType": "uint256",
              "name": "votes",
              "type": "uint256"
            },
            {
              "internalType": "bool",
              "name": "executed",
              "type": "bool"
            }
          ],
          "internalType": "struct Proposal",
          "name": "",
          "type": "tuple"
        }
      ],
      "stateMutability": "view",
      "type": "function"
    },
    {
      "inputs": [
        {
          "internalType": "bytes32",
          "name": "txHash",
          "type": "bytes32"
        },
        {
          "internalType": "address",
          "name": "receiver",
          "type": "address"
        },
        {
          "internalType": "uint256",
          "name": "amount",
          "type": "uint256"
        },
        {
          "internalType": "uint256",
          "name": "proposalNonce",
          "type": "uint256"
        },
        {
          "internalType": "uint256",
          "name": "chainID",
          "type": "uint256"
        }
      ],
      "name": "getProposalID",
      "outputs": [
        {
          "internalType": "bytes32",
          "name": "",
          "type": "bytes32"
        }
      ],
      "stateMutability": "pure",
      "type": "function"
    },
    {
      "inputs": [
        {
          "internalType": "address",
          "name": "validator",
          "type": "address"
        }
      ],
      "name": "isValidator",
      "outputs": [
        {
          "internalType": "bool",
          "name": "",
          "type": "bool"
        }
      ],
      "stateMutability": "view",
      "type": "function"
    },
    {
      "inputs": [],
      "name": "nonce",
      "outputs": [
        {
          "internalType": "uint256",
          "name": "",
          "type": "uint256"
        }
      ],
      "stateMutability": "view",
      "type": "function"
    },
    {
      "inputs": [
        {
          "internalType": "bytes32",
          "name": "txHash",
          "type": "bytes32"
        },
        {
          "internalType": "address",
          "name": "receiver",
          "type": "address"
        },
        {
          "internalType": "uint256",
          "name": "amount",
          "type": "uint256"
        },
        {
          "internalType": "uint256",
          "name": "proposalNonce",
          "type": "uint256"
        },
        {
          "internalType": "uint256",
          "name": "chainID",
          "type": "uint256"
        }
      ],
      "name": "propose",
      "outputs": [],
      "stateMutability": "nonpayable",
      "type": "function"
    },
    {
      "inputs": [],
      "name": "proposer",
      "outputs": [
        {
          "internalType": "address",
          "name": "",
          "type": "address"
        }
      ],
      "stateMutability": "view",
      "type": "function"
    },
    {
      "inputs": [
        {
          "internalType": "address",
          "name": "validator",
          "type": "address"
        }
      ],
      "name": "removeValidator",
      "outputs": [],
      "stateMutability": "nonpayable",
      "type": "function"
    },
    {
      "inputs": [
        {
          "internalType": "address",
          "name": "proposer_",
          "type": "address"
        }
      ],
      "name": "setProposer",
      "outputs": [],
      "stateMutability": "nonpayable",
      "type": "function"
    },
    {
      "inputs": [
        {
          "internalType": "uint256",
          "name": "threshold",
          "type": "uint256"
        }
      ],
      "name": "setVotingThreshold",
      "outputs": [],
      "stateMutability": "nonpayable",
      "type": "function"
    },
    {
      "inputs": [],
      "name": "token",
      "outputs": [
        {
          "internalType": "contract IToken",
          "name": "",
          "type": "address"
        }
      ],
      "stateMutability": "view",
      "type": "function"
    },
    {
      "inputs": [
        {
          "internalType": "bytes32",
          "name": "proposalID",
          "type": "bytes32"
        }
      ],
      "name": "vote",
      "outputs": [],
      "stateMutability": "nonpayable",
      "type": "function"
    },
    {
      "inputs": [],
      "name": "voteThreshold",
      "outputs": [
        {
          "internalType": "uint256",
          "name": "",
          "type": "uint256"
        }
      ],
      "stateMutability": "view",
      "type": "function"
    }
  ],
  "bytecode": "0x60806040523480156200001157600080fd5b5060405162001db738038062001db78339818101604052810190620000379190620001b2565b826000806101000a81548173ffffffffffffffffffffffffffffffffffffffff021916908373ffffffffffffffffffffffffffffffffffffffff16021790555081600360006101000a81548173ffffffffffffffffffffffffffffffffffffffff021916908373ffffffffffffffffffffffffffffffffffffffff160217905550806002819055505050506200020e565b600080fd5b600073ffffffffffffffffffffffffffffffffffffffff82169050919050565b6000620000fa82620000cd565b9050919050565b6200010c81620000ed565b81146200011857600080fd5b50565b6000815190506200012c8162000101565b92915050565b60006200013f82620000ed565b9050919050565b620001518162000132565b81146200015d57600080fd5b50565b600081519050620001718162000146565b92915050565b6000819050919050565b6200018c8162000177565b81146200019857600080fd5b50565b600081519050620001ac8162000181565b92915050565b600080600060608486031215620001ce57620001cd620000c8565b5b6000620001de868287016200011b565b9350506020620001f18682870162000160565b925050604062000204868287016200019b565b9150509250925092565b611b99806200021e6000396000f3fe608060405234801561001057600080fd5b50600436106101005760003560e01c8063836761e011610097578063affed0e011610066578063affed0e014610283578063bf1727cc146102a1578063facd743b146102bd578063fc0c546a146102ed57610100565b8063836761e01461020f5780639a8a05921461022b578063a69beaba14610249578063a8e4fb901461026557610100565b8063430694cf116100d3578063430694cf146101755780634d238c8e146101a55780634fe437d5146101c15780635d38bfb2146101df57610100565b80630efe6a8b146101055780631fb4a2281461012157806320c29bca1461013d57806340a141ff14610159575b600080fd5b61011f600480360381019061011a91906111f2565b61030b565b005b61013b60048036038101906101369190611245565b61036b565b005b61015760048036038101906101529190611272565b61043c565b005b610173600480360381019061016e9190611245565b6104f9565b005b61018f600480360381019061018a91906112d5565b6105e2565b60405161019c91906113ec565b60405180910390f35b6101bf60048036038101906101ba9190611245565b610709565b005b6101c96107f2565b6040516101d69190611417565b60405180910390f35b6101f960048036038101906101f49190611432565b6107fc565b60405161020691906114bc565b60405180910390f35b61022960048036038101906102249190611272565b610838565b005b6102336108d0565b6040516102409190611417565b60405180910390f35b610263600480360381019061025e91906112d5565b6108d8565b005b61026d610930565b60405161027a91906114e6565b60405180910390f35b61028b610959565b6040516102989190611417565b60405180910390f35b6102bb60048036038101906102b69190611432565b610963565b005b6102d760048036038101906102d29190611245565b610abd565b6040516102e49190611510565b60405180910390f35b6102f5610b13565b604051610302919061158a565b60405180910390f35b610316838383610b3d565b6000600154905061032683610d0a565b7ff9e6944a20b1cd07f8a1cbb67e59d0db44c9eff947e6b113b0f571c70e6be673338585848660405161035d9594939291906115a5565b60405180910390a150505050565b60008054906101000a900473ffffffffffffffffffffffffffffffffffffffff1673ffffffffffffffffffffffffffffffffffffffff163373ffffffffffffffffffffffffffffffffffffffff16146103f9576040517f08c379a00000000000000000000000000000000000000000000000000000000081526004016103f090611655565b60405180910390fd5b806000806101000a81548173ffffffffffffffffffffffffffffffffffffffff021916908373ffffffffffffffffffffffffffffffffffffffff16021790555050565b60008054906101000a900473ffffffffffffffffffffffffffffffffffffffff1673ffffffffffffffffffffffffffffffffffffffff163373ffffffffffffffffffffffffffffffffffffffff16146104ca576040517f08c379a00000000000000000000000000000000000000000000000000000000081526004016104c190611655565b60405180910390fd5b60016005600083815260200190815260200160002060006101000a81548160ff02191690831515021790555050565b60008054906101000a900473ffffffffffffffffffffffffffffffffffffffff1673ffffffffffffffffffffffffffffffffffffffff163373ffffffffffffffffffffffffffffffffffffffff1614610587576040517f08c379a000000000000000000000000000000000000000000000000000000000815260040161057e90611655565b60405180910390fd5b6000600760008373ffffffffffffffffffffffffffffffffffffffff1673ffffffffffffffffffffffffffffffffffffffff16815260200190815260200160002060006101000a81548160ff02191690831515021790555050565b6105ea6110e3565b6004600083815260200190815260200160002060405180610100016040529081600082015481526020016001820160009054906101000a900473ffffffffffffffffffffffffffffffffffffffff1673ffffffffffffffffffffffffffffffffffffffff1673ffffffffffffffffffffffffffffffffffffffff1681526020016002820160009054906101000a900473ffffffffffffffffffffffffffffffffffffffff1673ffffffffffffffffffffffffffffffffffffffff1673ffffffffffffffffffffffffffffffffffffffff168152602001600382015481526020016004820154815260200160058201548152602001600682015481526020016007820160009054906101000a900460ff1615151515815250509050919050565b60008054906101000a900473ffffffffffffffffffffffffffffffffffffffff1673ffffffffffffffffffffffffffffffffffffffff163373ffffffffffffffffffffffffffffffffffffffff1614610797576040517f08c379a000000000000000000000000000000000000000000000000000000000815260040161078e90611655565b60405180910390fd5b6001600760008373ffffffffffffffffffffffffffffffffffffffff1673ffffffffffffffffffffffffffffffffffffffff16815260200190815260200160002060006101000a81548160ff02191690831515021790555050565b6000600254905090565b600085858585856040516020016108179594939291906116ff565b60405160208183030381529060405280519060200120905095945050505050565b60008054906101000a900473ffffffffffffffffffffffffffffffffffffffff1673ffffffffffffffffffffffffffffffffffffffff163373ffffffffffffffffffffffffffffffffffffffff16146108c6576040517f08c379a00000000000000000000000000000000000000000000000000000000081526004016108bd90611655565b60405180910390fd5b8060028190555050565b600046905090565b6108e181610db3565b60006108ec82610ebd565b9050801561092c577f7b1bcf1ccf901a11589afff5504d59fd0a53780eed2a952adade0348985139e08260405161092391906114bc565b60405180910390a15b5050565b60008060009054906101000a900473ffffffffffffffffffffffffffffffffffffffff16905090565b6000600154905090565b60008054906101000a900473ffffffffffffffffffffffffffffffffffffffff1673ffffffffffffffffffffffffffffffffffffffff163373ffffffffffffffffffffffffffffffffffffffff16146109f1576040517f08c379a00000000000000000000000000000000000000000000000000000000081526004016109e890611655565b60405180910390fd5b60066000828152602001908152602001600020600083815260200190815260200160002060009054906101000a900460ff1615610a63576040517f08c379a0000000000000000000000000000000000000000000000000000000008152600401610a5a906117aa565b60405180910390fd5b6000610a728686868686611008565b90507f62819ce06a00ca8a28dd683b302b56c5d85bfc98bafc6d2969d60f4ba6ff3157818688858789604051610aad969594939291906117ca565b60405180910390a1505050505050565b6000600760008373ffffffffffffffffffffffffffffffffffffffff1673ffffffffffffffffffffffffffffffffffffffff16815260200190815260200160002060009054906101000a900460ff169050919050565b6000600360009054906101000a900473ffffffffffffffffffffffffffffffffffffffff16905090565b60008211610b80576040517f08c379a0000000000000000000000000000000000000000000000000000000008152600401610b7790611877565b60405180910390fd5b6005600082815260200190815260200160002060009054906101000a900460ff168015610bb45750610bb06108d0565b8114155b610bf3576040517f08c379a0000000000000000000000000000000000000000000000000000000008152600401610bea906118e3565b60405180910390fd5b600073ffffffffffffffffffffffffffffffffffffffff168373ffffffffffffffffffffffffffffffffffffffff1603610c62576040517f08c379a0000000000000000000000000000000000000000000000000000000008152600401610c599061194f565b60405180910390fd5b600360009054906101000a900473ffffffffffffffffffffffffffffffffffffffff1673ffffffffffffffffffffffffffffffffffffffff166323b872dd3330856040518463ffffffff1660e01b8152600401610cc19392919061196f565b6020604051808303816000875af1158015610ce0573d6000803e3d6000fd5b505050506040513d601f19601f82011682018060405250810190610d0491906119d2565b50505050565b600360009054906101000a900473ffffffffffffffffffffffffffffffffffffffff1673ffffffffffffffffffffffffffffffffffffffff166342966c68826040518263ffffffff1660e01b8152600401610d659190611417565b600060405180830381600087803b158015610d7f57600080fd5b505af1158015610d93573d6000803e3d6000fd5b505050506001806000828254610da99190611a2e565b9250508190555050565b600760003373ffffffffffffffffffffffffffffffffffffffff1673ffffffffffffffffffffffffffffffffffffffff16815260200190815260200160002060009054906101000a900460ff16610e3f576040517f08c379a0000000000000000000000000000000000000000000000000000000008152600401610e3690611aae565b60405180910390fd5b60006004600083815260200190815260200160002090506000816004015403610e9d576040517f08c379a0000000000000000000000000000000000000000000000000000000008152600401610e9490611b1a565b60405180910390fd5b6001816006016000828254610eb29190611a2e565b925050819055505050565b600080600460008481526020019081526020016000209050600254816006015410158015610efa57508060070160009054906101000a900460ff16155b15610fed57600360009054906101000a900473ffffffffffffffffffffffffffffffffffffffff1673ffffffffffffffffffffffffffffffffffffffff166340c10f198260020160009054906101000a900473ffffffffffffffffffffffffffffffffffffffff1683600301546040518363ffffffff1660e01b8152600401610f84929190611b3a565b600060405180830381600087803b158015610f9e57600080fd5b505af1158015610fb2573d6000803e3d6000fd5b5050505060018160070160006101000a81548160ff0219169083151502179055508060070160009054906101000a900460ff16915050611003565b8060070160009054906101000a900460ff169150505b919050565b60008061101887878787876107fc565b90506000600460008381526020019081526020016000209050878160000181905550868160020160006101000a81548173ffffffffffffffffffffffffffffffffffffffff021916908373ffffffffffffffffffffffffffffffffffffffff160217905550858160030181905550848160050181905550838160040181905550600160066000868152602001908152602001600020600087815260200190815260200160002060006101000a81548160ff021916908315150217905550819250505095945050505050565b60405180610100016040528060008019168152602001600073ffffffffffffffffffffffffffffffffffffffff168152602001600073ffffffffffffffffffffffffffffffffffffffff168152602001600081526020016000815260200160008152602001600081526020016000151581525090565b600080fd5b600073ffffffffffffffffffffffffffffffffffffffff82169050919050565b60006111898261115e565b9050919050565b6111998161117e565b81146111a457600080fd5b50565b6000813590506111b681611190565b92915050565b6000819050919050565b6111cf816111bc565b81146111da57600080fd5b50565b6000813590506111ec816111c6565b92915050565b60008060006060848603121561120b5761120a611159565b5b6000611219868287016111a7565b935050602061122a868287016111dd565b925050604061123b868287016111dd565b9150509250925092565b60006020828403121561125b5761125a611159565b5b6000611269848285016111a7565b91505092915050565b60006020828403121561128857611287611159565b5b6000611296848285016111dd565b91505092915050565b6000819050919050565b6112b28161129f565b81146112bd57600080fd5b50565b6000813590506112cf816112a9565b92915050565b6000602082840312156112eb576112ea611159565b5b60006112f9848285016112c0565b91505092915050565b61130b8161129f565b82525050565b61131a8161117e565b82525050565b611329816111bc565b82525050565b60008115159050919050565b6113448161132f565b82525050565b610100820160008201516113616000850182611302565b5060208201516113746020850182611311565b5060408201516113876040850182611311565b50606082015161139a6060850182611320565b5060808201516113ad6080850182611320565b5060a08201516113c060a0850182611320565b5060c08201516113d360c0850182611320565b5060e08201516113e660e085018261133b565b50505050565b600061010082019050611402600083018461134a565b92915050565b611411816111bc565b82525050565b600060208201905061142c6000830184611408565b92915050565b600080600080600060a0868803121561144e5761144d611159565b5b600061145c888289016112c0565b955050602061146d888289016111a7565b945050604061147e888289016111dd565b935050606061148f888289016111dd565b92505060806114a0888289016111dd565b9150509295509295909350565b6114b68161129f565b82525050565b60006020820190506114d160008301846114ad565b92915050565b6114e08161117e565b82525050565b60006020820190506114fb60008301846114d7565b92915050565b61150a8161132f565b82525050565b60006020820190506115256000830184611501565b92915050565b6000819050919050565b600061155061154b6115468461115e565b61152b565b61115e565b9050919050565b600061156282611535565b9050919050565b600061157482611557565b9050919050565b61158481611569565b82525050565b600060208201905061159f600083018461157b565b92915050565b600060a0820190506115ba60008301886114d7565b6115c760208301876114d7565b6115d46040830186611408565b6115e16060830185611408565b6115ee6080830184611408565b9695505050505050565b600082825260208201905092915050565b7f4552523a20494e56414c49442050524f504f5345520000000000000000000000600082015250565b600061163f6015836115f8565b915061164a82611609565b602082019050919050565b6000602082019050818103600083015261166e81611632565b9050919050565b6000819050919050565b61169061168b8261129f565b611675565b82525050565b60008160601b9050919050565b60006116ae82611696565b9050919050565b60006116c0826116a3565b9050919050565b6116d86116d38261117e565b6116b5565b82525050565b6000819050919050565b6116f96116f4826111bc565b6116de565b82525050565b600061170b828861167f565b60208201915061171b82876116c7565b60148201915061172b82866116e8565b60208201915061173b82856116e8565b60208201915061174b82846116e8565b6020820191508190509695505050505050565b7f4552523a204e4f4e434520414c52454144592050524f43455353454400000000600082015250565b6000611794601c836115f8565b915061179f8261175e565b602082019050919050565b600060208201905081810360008301526117c381611787565b9050919050565b600060c0820190506117df60008301896114ad565b6117ec60208301886114d7565b6117f960408301876114ad565b6118066060830186611408565b6118136080830185611408565b61182060a0830184611408565b979650505050505050565b7f4552523a204e4f4e205a45524f20414d4f554e54205245515549524544000000600082015250565b6000611861601d836115f8565b915061186c8261182b565b602082019050919050565b6000602082019050818103600083015261189081611854565b9050919050565b7f4552523a20554e535550504f5254454420434841494e20494400000000000000600082015250565b60006118cd6019836115f8565b91506118d882611897565b602082019050919050565b600060208201905081810360008301526118fc816118c0565b9050919050565b7f4552523a2042524944474520544f205a45524f20414444524553530000000000600082015250565b6000611939601b836115f8565b915061194482611903565b602082019050919050565b600060208201905081810360008301526119688161192c565b9050919050565b600060608201905061198460008301866114d7565b61199160208301856114d7565b61199e6040830184611408565b949350505050565b6119af8161132f565b81146119ba57600080fd5b50565b6000815190506119cc816119a6565b92915050565b6000602082840312156119e8576119e7611159565b5b60006119f6848285016119bd565b91505092915050565b7f4e487b7100000000000000000000000000000000000000000000000000000000600052601160045260246000fd5b6000611a39826111bc565b9150611a44836111bc565b9250828201905080821115611a5c57611a5b6119ff565b5b92915050565b7f4552523a204e4f542056414c494441544f520000000000000000000000000000600082015250565b6000611a986012836115f8565b9150611aa382611a62565b602082019050919050565b60006020820190508181036000830152611ac781611a8b565b9050919050565b7f4552523a20494e56414c49442050524f504f53414c0000000000000000000000600082015250565b6000611b046015836115f8565b9150611b0f82611ace565b602082019050919050565b60006020820190508181036000830152611b3381611af7565b9050919050565b6000604082019050611b4f60008301856114d7565b611b5c6020830184611408565b939250505056fea264697066735822122097547d6799046feea4d1228363f01beecb585509a67933346b2af500bb0b3cb064736f6c63430008140033",
  "linkReferences": {},
  "deployedLinkReferences": {}
}