{
  "_format": "hh-sol-artifact-1",
  "contractName": "HomeBridge",
  "sourceName": "contracts/HomeBridge.sol",
  "abi": [
    {
      "inputs": [
        {
          "internalType": "address",
          "name": "proposer_",
          "type": "address"
        },
        {
          "internalType": "contract IToken",
          "name": "token_",
          "type": "address"
        },
        {
          "internalType": "uint256",
          "name": "voteThreshold_",
          "type": "uint256"
        }
      ],
      "stateMutability": "nonpayable",
      "type": "constructor"
    },
    {
      "anonymous": false,
      "inputs": [
        {
          "indexed": false,
          "internalType": "address",
          "name": "sender",
          "type": "address"
        },
        {
          "indexed": false,
          "internalType": "address",
          "name": "recepient",
          "type": "address"
        },
        {
          "indexed": false,
          "internalType": "uint256",
          "name": "amount",
          "type": "uint256"
        },
        {
          "indexed": false,
          "internalType": "uint256",
          "name": "nonce",
          "type": "uint256"
        },
        {
          "indexed": false,
          "internalType": "uint256",
          "name": "chainID",
          "type": "uint256"
        }
      ],
      "name": "DepositEvent",
      "type": "event"
    },
    {
      "anonymous": false,
      "inputs": [
        {
          "indexed": false,
          "internalType": "bytes32",
          "name": "proposalID",
          "type": "bytes32"
        },
        {
          "indexed": false,
          "internalType": "address",
          "name": "recepient",
          "type": "address"
        },
        {
          "indexed": false,
          "internalType": "bytes32",
          "name": "txHash",
          "type": "bytes32"
        },
        {
          "indexed": false,
          "internalType": "uint256",
          "name": "chainID",
          "type": "uint256"
        },
        {
          "indexed": false,
          "internalType": "uint256",
          "name": "nonce",
          "type": "uint256"
        },
        {
          "indexed": false,
          "internalType": "uint256",
          "name": "amount",
          "type": "uint256"
        }
      ],
      "name": "ProposalEvent",
      "type": "event"
    },
    {
      "anonymous": false,
      "inputs": [
        {
          "indexed": false,
          "internalType": "bytes32",
          "name": "proposalID",
          "type": "bytes32"
        }
      ],
      "name": "ProposalExecuted",
      "type": "event"
    },
    {
      "anonymous": false,
      "inputs": [
        {
          "indexed": false,
          "internalType": "bytes32",
          "name": "proposalID",
          "type": "bytes32"
        }
      ],
      "name": "ProposalVote",
      "type": "event"
    },
    {
      "inputs": [
        {
          "internalType": "uint256",
          "name": "chainID",
          "type": "uint256"
        }
      ],
      "name": "addChainID",
      "outputs": [],
      "stateMutability": "nonpayable",
      "type": "function"
    },
    {
      "inputs": [
        {
          "internalType": "address",
          "name": "validator",
          "type": "address"
        }
      ],
      "name": "addValidator",
      "outputs": [],
      "stateMutability": "nonpayable",
      "type": "function"
    },
    {
      "inputs": [],
      "name": "chainId",
      "outputs": [
        {
          "internalType": "uint256",
          "name": "",
          "type": "uint256"
        }
      ],
      "stateMutability": "view",
      "type": "function"
    },
    {
      "inputs": [
        {
          "internalType": "address",
          "name": "recepient",
          "type": "address"
        },
        {
          "internalType": "uint256",
          "name": "amount",
          "type": "uint256"
        },
        {
          "internalType": "uint256",
          "name": "chainID",
          "type": "uint256"
        }
      ],
      "name": "deposit",
      "outputs": [],
      "stateMutability": "nonpayable",
      "type": "function"
    },
    {
      "inputs": [
        {
          "internalType": "bytes32",
          "name": "proposalId",
          "type": "bytes32"
        }
      ],
      "name": "getProposal",
      "outputs": [
        {
          "components": [
            {
              "internalType": "bytes32",
              "name": "txHash",
              "type": "bytes32"
            },
            {
              "internalType": "address",
              "name": "depositor",
              "type": "address"
            },
            {
              "internalType": "address",
              "name": "receiver",
              "type": "address"
            },
            {
              "internalType": "uint256",
              "name": "amount",
              "type": "uint256"
            },
            {
              "internalType": "uint256",
              "name": "chainID",
              "type": "uint256"
            },
            {
              "internalType": "uint256",
              "name": "nonce",
              "type": "uint256"
            },
            {
              "internalType": "uint256",
              "name": "votes",
              "type": "uint256"
            },
            {
              "internalType": "bool",
              "name": "executed",
              "type": "bool"
            }
          ],
          "internalType": "struct Proposal",
          "name": "",
          "type": "tuple"
        }
      ],
      "stateMutability": "view",
      "type": "function"
    },
    {
      "inputs": [
        {
          "internalType": "bytes32",
          "name": "txHash",
          "type": "bytes32"
        },
        {
          "internalType": "address",
          "name": "receiver",
          "type": "address"
        },
        {
          "internalType": "uint256",
          "name": "amount",
          "type": "uint256"
        },
        {
          "internalType": "uint256",
          "name": "proposalNonce",
          "type": "uint256"
        },
        {
          "internalType": "uint256",
          "name": "chainID",
          "type": "uint256"
        }
      ],
      "name": "getProposalID",
      "outputs": [
        {
          "internalType": "bytes32",
          "name": "",
          "type": "bytes32"
        }
      ],
      "stateMutability": "pure",
      "type": "function"
    },
    {
      "inputs": [
        {
          "internalType": "address",
          "name": "validator",
          "type": "address"
        }
      ],
      "name": "isValidator",
      "outputs": [
        {
          "internalType": "bool",
          "name": "",
          "type": "bool"
        }
      ],
      "stateMutability": "view",
      "type": "function"
    },
    {
      "inputs": [],
      "name": "nonce",
      "outputs": [
        {
          "internalType": "uint256",
          "name": "",
          "type": "uint256"
        }
      ],
      "stateMutability": "view",
      "type": "function"
    },
    {
      "inputs": [
        {
          "internalType": "bytes32",
          "name": "txHash",
          "type": "bytes32"
        },
        {
          "internalType": "address",
          "name": "receiver",
          "type": "address"
        },
        {
          "internalType": "uint256",
          "name": "amount",
          "type": "uint256"
        },
        {
          "internalType": "uint256",
          "name": "proposalNonce",
          "type": "uint256"
        },
        {
          "internalType": "uint256",
          "name": "chainID",
          "type": "uint256"
        }
      ],
      "name": "propose",
      "outputs": [],
      "stateMutability": "nonpayable",
      "type": "function"
    },
    {
      "inputs": [],
      "name": "proposer",
      "outputs": [
        {
          "internalType": "address",
          "name": "",
          "type": "address"
        }
      ],
      "stateMutability": "view",
      "type": "function"
    },
    {
      "inputs": [
        {
          "internalType": "address",
          "name": "validator",
          "type": "address"
        }
      ],
      "name": "removeValidator",
      "outputs": [],
      "stateMutability": "nonpayable",
      "type": "function"
    },
    {
      "inputs": [
        {
          "internalType": "address",
          "name": "proposer_",
          "type": "address"
        }
      ],
      "name": "setProposer",
      "outputs": [],
      "stateMutability": "nonpayable",
      "type": "function"
    },
    {
      "inputs": [
        {
          "internalType": "uint256",
          "name": "threshold",
          "type": "uint256"
        }
      ],
      "name": "setVotingThreshold",
      "outputs": [],
      "stateMutability": "nonpayable",
      "type": "function"
    },
    {
      "inputs": [],
      "name": "token",
      "outputs": [
        {
          "internalType": "contract IToken",
          "name": "",
          "type": "address"
        }
      ],
      "stateMutability": "view",
      "type": "function"
    },
    {
      "inputs": [
        {
          "internalType": "bytes32",
          "name": "proposalID",
          "type": "bytes32"
        }
      ],
      "name": "vote",
      "outputs": [],
      "stateMutability": "nonpayable",
      "type": "function"
    },
    {
      "inputs": [],
      "name": "voteThreshold",
      "outputs": [
        {
          "internalType": "uint256",
          "name": "",
          "type": "uint256"
        }
      ],
      "stateMutability": "view",
      "type": "function"
    }
  ],
  "bytecode": "0x60806040523480156200001157600080fd5b5060405162001d3a38038062001d3a8339818101604052810190620000379190620001b2565b826000806101000a81548173ffffffffffffffffffffffffffffffffffffffff021916908373ffffffffffffffffffffffffffffffffffffffff16021790555081600360006101000a81548173ffffffffffffffffffffffffffffffffffffffff021916908373ffffffffffffffffffffffffffffffffffffffff160217905550806002819055505050506200020e565b600080fd5b600073ffffffffffffffffffffffffffffffffffffffff82169050919050565b6000620000fa82620000cd565b9050919050565b6200010c81620000ed565b81146200011857600080fd5b50565b6000815190506200012c8162000101565b92915050565b60006200013f82620000ed565b9050919050565b620001518162000132565b81146200015d57600080fd5b50565b600081519050620001718162000146565b92915050565b6000819050919050565b6200018c8162000177565b81146200019857600080fd5b50565b600081519050620001ac8162000181565b92915050565b600080600060608486031215620001ce57620001cd620000c8565b5b6000620001de868287016200011b565b9350506020620001f18682870162000160565b925050604062000204868287016200019b565b9150509250925092565b611b1c806200021e6000396000f3fe608060405234801561001057600080fd5b50600436106101005760003560e01c8063836761e011610097578063affed0e011610066578063affed0e014610283578063bf1727cc146102a1578063facd743b146102bd578063fc0c546a146102ed57610100565b8063836761e01461020f5780639a8a05921461022b578063a69beaba14610249578063a8e4fb901461026557610100565b8063430694cf116100d3578063430694cf146101755780634d238c8e146101a55780634fe437d5146101c15780635d38bfb2146101df57610100565b80630efe6a8b146101055780631fb4a2281461012157806320c29bca1461013d57806340a141ff14610159575b600080fd5b61011f600480360381019061011a9190611175565b61030b565b005b61013b600480360381019061013691906111c8565b61036a565b005b610157600480360381019061015291906111f5565b61043b565b005b610173600480360381019061016e91906111c8565b6104f8565b005b61018f600480360381019061018a9190611258565b6105e1565b60405161019c919061136f565b60405180910390f35b6101bf60048036038101906101ba91906111c8565b610708565b005b6101c96107f1565b6040516101d6919061139a565b60405180910390f35b6101f960048036038101906101f491906113b5565b6107fb565b604051610206919061143f565b60405180910390f35b610229600480360381019061022491906111f5565b610837565b005b6102336108cf565b604051610240919061139a565b60405180910390f35b610263600480360381019061025e9190611258565b6108d7565b005b61026d61092f565b60405161027a9190611469565b60405180910390f35b61028b610958565b604051610298919061139a565b60405180910390f35b6102bb60048036038101906102b691906113b5565b610962565b005b6102d760048036038101906102d291906111c8565b610abc565b6040516102e49190611493565b60405180910390f35b6102f5610b12565b604051610302919061150d565b60405180910390f35b610316838383610b3c565b60006001549050610325610d09565b7ff9e6944a20b1cd07f8a1cbb67e59d0db44c9eff947e6b113b0f571c70e6be673338585848660405161035c959493929190611528565b60405180910390a150505050565b60008054906101000a900473ffffffffffffffffffffffffffffffffffffffff1673ffffffffffffffffffffffffffffffffffffffff163373ffffffffffffffffffffffffffffffffffffffff16146103f8576040517f08c379a00000000000000000000000000000000000000000000000000000000081526004016103ef906115d8565b60405180910390fd5b806000806101000a81548173ffffffffffffffffffffffffffffffffffffffff021916908373ffffffffffffffffffffffffffffffffffffffff16021790555050565b60008054906101000a900473ffffffffffffffffffffffffffffffffffffffff1673ffffffffffffffffffffffffffffffffffffffff163373ffffffffffffffffffffffffffffffffffffffff16146104c9576040517f08c379a00000000000000000000000000000000000000000000000000000000081526004016104c0906115d8565b60405180910390fd5b60016005600083815260200190815260200160002060006101000a81548160ff02191690831515021790555050565b60008054906101000a900473ffffffffffffffffffffffffffffffffffffffff1673ffffffffffffffffffffffffffffffffffffffff163373ffffffffffffffffffffffffffffffffffffffff1614610586576040517f08c379a000000000000000000000000000000000000000000000000000000000815260040161057d906115d8565b60405180910390fd5b6000600760008373ffffffffffffffffffffffffffffffffffffffff1673ffffffffffffffffffffffffffffffffffffffff16815260200190815260200160002060006101000a81548160ff02191690831515021790555050565b6105e9611066565b6004600083815260200190815260200160002060405180610100016040529081600082015481526020016001820160009054906101000a900473ffffffffffffffffffffffffffffffffffffffff1673ffffffffffffffffffffffffffffffffffffffff1673ffffffffffffffffffffffffffffffffffffffff1681526020016002820160009054906101000a900473ffffffffffffffffffffffffffffffffffffffff1673ffffffffffffffffffffffffffffffffffffffff1673ffffffffffffffffffffffffffffffffffffffff168152602001600382015481526020016004820154815260200160058201548152602001600682015481526020016007820160009054906101000a900460ff1615151515815250509050919050565b60008054906101000a900473ffffffffffffffffffffffffffffffffffffffff1673ffffffffffffffffffffffffffffffffffffffff163373ffffffffffffffffffffffffffffffffffffffff1614610796576040517f08c379a000000000000000000000000000000000000000000000000000000000815260040161078d906115d8565b60405180910390fd5b6001600760008373ffffffffffffffffffffffffffffffffffffffff1673ffffffffffffffffffffffffffffffffffffffff16815260200190815260200160002060006101000a81548160ff02191690831515021790555050565b6000600254905090565b60008585858585604051602001610816959493929190611682565b60405160208183030381529060405280519060200120905095945050505050565b60008054906101000a900473ffffffffffffffffffffffffffffffffffffffff1673ffffffffffffffffffffffffffffffffffffffff163373ffffffffffffffffffffffffffffffffffffffff16146108c5576040517f08c379a00000000000000000000000000000000000000000000000000000000081526004016108bc906115d8565b60405180910390fd5b8060028190555050565b600046905090565b6108e081610d24565b60006108eb82610e2e565b9050801561092b577f7b1bcf1ccf901a11589afff5504d59fd0a53780eed2a952adade0348985139e082604051610922919061143f565b60405180910390a15b5050565b60008060009054906101000a900473ffffffffffffffffffffffffffffffffffffffff16905090565b6000600154905090565b60008054906101000a900473ffffffffffffffffffffffffffffffffffffffff1673ffffffffffffffffffffffffffffffffffffffff163373ffffffffffffffffffffffffffffffffffffffff16146109f0576040517f08c379a00000000000000000000000000000000000000000000000000000000081526004016109e7906115d8565b60405180910390fd5b60066000828152602001908152602001600020600083815260200190815260200160002060009054906101000a900460ff1615610a62576040517f08c379a0000000000000000000000000000000000000000000000000000000008152600401610a599061172d565b60405180910390fd5b6000610a718686868686610f8b565b90507f62819ce06a00ca8a28dd683b302b56c5d85bfc98bafc6d2969d60f4ba6ff3157818688858789604051610aac9695949392919061174d565b60405180910390a1505050505050565b6000600760008373ffffffffffffffffffffffffffffffffffffffff1673ffffffffffffffffffffffffffffffffffffffff16815260200190815260200160002060009054906101000a900460ff169050919050565b6000600360009054906101000a900473ffffffffffffffffffffffffffffffffffffffff16905090565b60008211610b7f576040517f08c379a0000000000000000000000000000000000000000000000000000000008152600401610b76906117fa565b60405180910390fd5b6005600082815260200190815260200160002060009054906101000a900460ff168015610bb35750610baf6108cf565b8114155b610bf2576040517f08c379a0000000000000000000000000000000000000000000000000000000008152600401610be990611866565b60405180910390fd5b600073ffffffffffffffffffffffffffffffffffffffff168373ffffffffffffffffffffffffffffffffffffffff1603610c61576040517f08c379a0000000000000000000000000000000000000000000000000000000008152600401610c58906118d2565b60405180910390fd5b600360009054906101000a900473ffffffffffffffffffffffffffffffffffffffff1673ffffffffffffffffffffffffffffffffffffffff166323b872dd3330856040518463ffffffff1660e01b8152600401610cc0939291906118f2565b6020604051808303816000875af1158015610cdf573d6000803e3d6000fd5b505050506040513d601f19601f82011682018060405250810190610d039190611955565b50505050565b6001806000828254610d1b91906119b1565b92505081905550565b600760003373ffffffffffffffffffffffffffffffffffffffff1673ffffffffffffffffffffffffffffffffffffffff16815260200190815260200160002060009054906101000a900460ff16610db0576040517f08c379a0000000000000000000000000000000000000000000000000000000008152600401610da790611a31565b60405180910390fd5b60006004600083815260200190815260200160002090506000816004015403610e0e576040517f08c379a0000000000000000000000000000000000000000000000000000000008152600401610e0590611a9d565b60405180910390fd5b6001816006016000828254610e2391906119b1565b925050819055505050565b600080600460008481526020019081526020016000209050600254816006015410158015610e6b57508060070160009054906101000a900460ff16155b15610f7057600360009054906101000a900473ffffffffffffffffffffffffffffffffffffffff1673ffffffffffffffffffffffffffffffffffffffff1663a9059cbb8260020160009054906101000a900473ffffffffffffffffffffffffffffffffffffffff1683600301546040518363ffffffff1660e01b8152600401610ef5929190611abd565b6020604051808303816000875af1158015610f14573d6000803e3d6000fd5b505050506040513d601f19601f82011682018060405250810190610f389190611955565b5060018160070160006101000a81548160ff0219169083151502179055508060070160009054906101000a900460ff16915050610f86565b8060070160009054906101000a900460ff169150505b919050565b600080610f9b87878787876107fb565b90506000600460008381526020019081526020016000209050878160000181905550868160020160006101000a81548173ffffffffffffffffffffffffffffffffffffffff021916908373ffffffffffffffffffffffffffffffffffffffff160217905550858160030181905550848160050181905550838160040181905550600160066000868152602001908152602001600020600087815260200190815260200160002060006101000a81548160ff021916908315150217905550819250505095945050505050565b60405180610100016040528060008019168152602001600073ffffffffffffffffffffffffffffffffffffffff168152602001600073ffffffffffffffffffffffffffffffffffffffff168152602001600081526020016000815260200160008152602001600081526020016000151581525090565b600080fd5b600073ffffffffffffffffffffffffffffffffffffffff82169050919050565b600061110c826110e1565b9050919050565b61111c81611101565b811461112757600080fd5b50565b60008135905061113981611113565b92915050565b6000819050919050565b6111528161113f565b811461115d57600080fd5b50565b60008135905061116f81611149565b92915050565b60008060006060848603121561118e5761118d6110dc565b5b600061119c8682870161112a565b93505060206111ad86828701611160565b92505060406111be86828701611160565b9150509250925092565b6000602082840312156111de576111dd6110dc565b5b60006111ec8482850161112a565b91505092915050565b60006020828403121561120b5761120a6110dc565b5b600061121984828501611160565b91505092915050565b6000819050919050565b61123581611222565b811461124057600080fd5b50565b6000813590506112528161122c565b92915050565b60006020828403121561126e5761126d6110dc565b5b600061127c84828501611243565b91505092915050565b61128e81611222565b82525050565b61129d81611101565b82525050565b6112ac8161113f565b82525050565b60008115159050919050565b6112c7816112b2565b82525050565b610100820160008201516112e46000850182611285565b5060208201516112f76020850182611294565b50604082015161130a6040850182611294565b50606082015161131d60608501826112a3565b50608082015161133060808501826112a3565b5060a082015161134360a08501826112a3565b5060c082015161135660c08501826112a3565b5060e082015161136960e08501826112be565b50505050565b60006101008201905061138560008301846112cd565b92915050565b6113948161113f565b82525050565b60006020820190506113af600083018461138b565b92915050565b600080600080600060a086880312156113d1576113d06110dc565b5b60006113df88828901611243565b95505060206113f08882890161112a565b945050604061140188828901611160565b935050606061141288828901611160565b925050608061142388828901611160565b9150509295509295909350565b61143981611222565b82525050565b60006020820190506114546000830184611430565b92915050565b61146381611101565b82525050565b600060208201905061147e600083018461145a565b92915050565b61148d816112b2565b82525050565b60006020820190506114a86000830184611484565b92915050565b6000819050919050565b60006114d36114ce6114c9846110e1565b6114ae565b6110e1565b9050919050565b60006114e5826114b8565b9050919050565b60006114f7826114da565b9050919050565b611507816114ec565b82525050565b600060208201905061152260008301846114fe565b92915050565b600060a08201905061153d600083018861145a565b61154a602083018761145a565b611557604083018661138b565b611564606083018561138b565b611571608083018461138b565b9695505050505050565b600082825260208201905092915050565b7f4552523a20494e56414c49442050524f504f5345520000000000000000000000600082015250565b60006115c260158361157b565b91506115cd8261158c565b602082019050919050565b600060208201905081810360008301526115f1816115b5565b9050919050565b6000819050919050565b61161361160e82611222565b6115f8565b82525050565b60008160601b9050919050565b600061163182611619565b9050919050565b600061164382611626565b9050919050565b61165b61165682611101565b611638565b82525050565b6000819050919050565b61167c6116778261113f565b611661565b82525050565b600061168e8288611602565b60208201915061169e828761164a565b6014820191506116ae828661166b565b6020820191506116be828561166b565b6020820191506116ce828461166b565b6020820191508190509695505050505050565b7f4552523a204e4f4e434520414c52454144592050524f43455353454400000000600082015250565b6000611717601c8361157b565b9150611722826116e1565b602082019050919050565b600060208201905081810360008301526117468161170a565b9050919050565b600060c0820190506117626000830189611430565b61176f602083018861145a565b61177c6040830187611430565b611789606083018661138b565b611796608083018561138b565b6117a360a083018461138b565b979650505050505050565b7f4552523a204e4f4e205a45524f20414d4f554e54205245515549524544000000600082015250565b60006117e4601d8361157b565b91506117ef826117ae565b602082019050919050565b60006020820190508181036000830152611813816117d7565b9050919050565b7f4552523a20554e535550504f5254454420434841494e20494400000000000000600082015250565b600061185060198361157b565b915061185b8261181a565b602082019050919050565b6000602082019050818103600083015261187f81611843565b9050919050565b7f4552523a2042524944474520544f205a45524f20414444524553530000000000600082015250565b60006118bc601b8361157b565b91506118c782611886565b602082019050919050565b600060208201905081810360008301526118eb816118af565b9050919050565b6000606082019050611907600083018661145a565b611914602083018561145a565b611921604083018461138b565b949350505050565b611932816112b2565b811461193d57600080fd5b50565b60008151905061194f81611929565b92915050565b60006020828403121561196b5761196a6110dc565b5b600061197984828501611940565b91505092915050565b7f4e487b7100000000000000000000000000000000000000000000000000000000600052601160045260246000fd5b60006119bc8261113f565b91506119c78361113f565b92508282019050808211156119df576119de611982565b5b92915050565b7f4552523a204e4f542056414c494441544f520000000000000000000000000000600082015250565b6000611a1b60128361157b565b9150611a26826119e5565b602082019050919050565b60006020820190508181036000830152611a4a81611a0e565b9050919050565b7f4552523a20494e56414c49442050524f504f53414c0000000000000000000000600082015250565b6000611a8760158361157b565b9150611a9282611a51565b602082019050919050565b60006020820190508181036000830152611ab681611a7a565b9050919050565b6000604082019050611ad2600083018561145a565b611adf602083018461138b565b939250505056fea2646970667358221220f0d75b87e786fd733702acce105c10b1c895030fe9a0ba5f6e0b7799795ae2e664736f6c63430008140033",
  "linkReferences": {},
  "deployedLinkReferences": {}
}