{
  "contracts/HomeBridge.sol": {
    "HomeBridge": {
      "abi": [
        {
          "inputs": [
            {
              "internalType": "address",
              "name": "proposer_",
              "type": "address"
            },
            {
              "internalType": "contract IToken",
              "name": "token_",
              "type": "address"
            },
            {
              "internalType": "uint256",
              "name": "voteThreshold_",
              "type": "uint256"
            }
          ],
          "stateMutability": "nonpayable",
          "type": "constructor"
        },
        {
          "anonymous": false,
          "inputs": [
            {
              "indexed": false,
              "internalType": "address",
              "name": "sender",
              "type": "address"
            },
            {
              "indexed": false,
              "internalType": "address",
              "name": "recepient",
              "type": "address"
            },
            {
              "indexed": false,
              "internalType": "uint256",
              "name": "amount",
              "type": "uint256"
            },
            {
              "indexed": false,
              "internalType": "uint256",
              "name": "nonce",
              "type": "uint256"
            },
            {
              "indexed": false,
              "internalType": "uint256",
              "name": "chainID",
              "type": "uint256"
            }
          ],
          "name": "DepositEvent",
          "type": "event"
        },
        {
          "anonymous": false,
          "inputs": [
            {
              "indexed": false,
              "internalType": "bytes32",
              "name": "proposalID",
              "type": "bytes32"
            },
            {
              "indexed": false,
              "internalType": "address",
              "name": "recepient",
              "type": "address"
            },
            {
              "indexed": false,
              "internalType": "bytes32",
              "name": "txHash",
              "type": "bytes32"
            },
            {
              "indexed": false,
              "internalType": "uint256",
              "name": "chainID",
              "type": "uint256"
            },
            {
              "indexed": false,
              "internalType": "uint256",
              "name": "nonce",
              "type": "uint256"
            },
            {
              "indexed": false,
              "internalType": "uint256",
              "name": "amount",
              "type": "uint256"
            }
          ],
          "name": "ProposalEvent",
          "type": "event"
        },
        {
          "anonymous": false,
          "inputs": [
            {
              "indexed": false,
              "internalType": "bytes32",
              "name": "proposalID",
              "type": "bytes32"
            }
          ],
          "name": "ProposalExecuted",
          "type": "event"
        },
        {
          "anonymous": false,
          "inputs": [
            {
              "indexed": false,
              "internalType": "bytes32",
              "name": "proposalID",
              "type": "bytes32"
            }
          ],
          "name": "ProposalVote",
          "type": "event"
        },
        {
          "inputs": [
            {
              "internalType": "uint256",
              "name": "chainID",
              "type": "uint256"
            }
          ],
          "name": "addChainID",
          "outputs": [],
          "stateMutability": "nonpayable",
          "type": "function"
        },
        {
          "inputs": [
            {
              "internalType": "address",
              "name": "validator",
              "type": "address"
            }
          ],
          "name": "addValidator",
          "outputs": [],
          "stateMutability": "nonpayable",
          "type": "function"
        },
        {
          "inputs": [],
          "name": "chainId",
          "outputs": [
            {
              "internalType": "uint256",
              "name": "",
              "type": "uint256"
            }
          ],
          "stateMutability": "view",
          "type": "function"
        },
        {
          "inputs": [
            {
              "internalType": "address",
              "name": "recepient",
              "type": "address"
            },
            {
              "internalType": "uint256",
              "name": "amount",
              "type": "uint256"
            },
            {
              "internalType": "uint256",
              "name": "chainID",
              "type": "uint256"
            }
          ],
          "name": "deposit",
          "outputs": [],
          "stateMutability": "nonpayable",
          "type": "function"
        },
        {
          "inputs": [
            {
              "internalType": "bytes32",
              "name": "txHash",
              "type": "bytes32"
            },
            {
              "internalType": "address",
              "name": "receiver",
              "type": "address"
            },
            {
              "internalType": "uint256",
              "name": "amount",
              "type": "uint256"
            },
            {
              "internalType": "uint256",
              "name": "proposalNonce",
              "type": "uint256"
            },
            {
              "internalType": "uint256",
              "name": "chainID",
              "type": "uint256"
            }
          ],
          "name": "getProposalID",
          "outputs": [
            {
              "internalType": "bytes32",
              "name": "",
              "type": "bytes32"
            }
          ],
          "stateMutability": "pure",
          "type": "function"
        },
        {
          "inputs": [
            {
              "internalType": "address",
              "name": "validator",
              "type": "address"
            }
          ],
          "name": "isValidator",
          "outputs": [
            {
              "internalType": "bool",
              "name": "",
              "type": "bool"
            }
          ],
          "stateMutability": "view",
          "type": "function"
        },
        {
          "inputs": [],
          "name": "nonce",
          "outputs": [
            {
              "internalType": "uint256",
              "name": "",
              "type": "uint256"
            }
          ],
          "stateMutability": "view",
          "type": "function"
        },
        {
          "inputs": [
            {
              "internalType": "bytes32",
              "name": "txHash",
              "type": "bytes32"
            },
            {
              "internalType": "address",
              "name": "receiver",
              "type": "address"
            },
            {
              "internalType": "uint256",
              "name": "amount",
              "type": "uint256"
            },
            {
              "internalType": "uint256",
              "name": "proposalNonce",
              "type": "uint256"
            },
            {
              "internalType": "uint256",
              "name": "chainID",
              "type": "uint256"
            }
          ],
          "name": "propose",
          "outputs": [],
          "stateMutability": "nonpayable",
          "type": "function"
        },
        {
          "inputs": [],
          "name": "proposer",
          "outputs": [
            {
              "internalType": "address",
              "name": "",
              "type": "address"
            }
          ],
          "stateMutability": "view",
          "type": "function"
        },
        {
          "inputs": [
            {
              "internalType": "address",
              "name": "validator",
              "type": "address"
            }
          ],
          "name": "removeValidator",
          "outputs": [],
          "stateMutability": "nonpayable",
          "type": "function"
        },
        {
          "inputs": [
            {
              "internalType": "address",
              "name": "proposer_",
              "type": "address"
            }
          ],
          "name": "setProposer",
          "outputs": [],
          "stateMutability": "nonpayable",
          "type": "function"
        },
        {
          "inputs": [
            {
              "internalType": "bytes32",
              "name": "proposalID",
              "type": "bytes32"
            }
          ],
          "name": "vote",
          "outputs": [],
          "stateMutability": "nonpayable",
          "type": "function"
        },
        {
          "inputs": [],
          "name": "voteThreshold",
          "outputs": [
            {
              "internalType": "uint256",
              "name": "",
              "type": "uint256"
            }
          ],
          "stateMutability": "view",
          "type": "function"
        }
      ],
      "evm": {
        "bytecode": {
          "linkReferences": {},
          "object": "60806040523480156200001157600080fd5b506040516200188e3803806200188e8339818101604052810190620000379190620001b2565b826000806101000a81548173ffffffffffffffffffffffffffffffffffffffff021916908373ffffffffffffffffffffffffffffffffffffffff16021790555081600360006101000a81548173ffffffffffffffffffffffffffffffffffffffff021916908373ffffffffffffffffffffffffffffffffffffffff160217905550806002819055505050506200020e565b600080fd5b600073ffffffffffffffffffffffffffffffffffffffff82169050919050565b6000620000fa82620000cd565b9050919050565b6200010c81620000ed565b81146200011857600080fd5b50565b6000815190506200012c8162000101565b92915050565b60006200013f82620000ed565b9050919050565b620001518162000132565b81146200015d57600080fd5b50565b600081519050620001718162000146565b92915050565b6000819050919050565b6200018c8162000177565b81146200019857600080fd5b50565b600081519050620001ac8162000181565b92915050565b600080600060608486031215620001ce57620001cd620000c8565b5b6000620001de868287016200011b565b9350506020620001f18682870162000160565b925050604062000204868287016200019b565b9150509250925092565b611670806200021e6000396000f3fe608060405234801561001057600080fd5b50600436106100cf5760003560e01c80635d38bfb21161008c578063a8e4fb9011610066578063a8e4fb90146101e8578063affed0e014610206578063bf1727cc14610224578063facd743b14610240576100cf565b80635d38bfb21461017e5780639a8a0592146101ae578063a69beaba146101cc576100cf565b80630efe6a8b146100d45780631fb4a228146100f057806320c29bca1461010c57806340a141ff146101285780634d238c8e146101445780634fe437d514610160575b600080fd5b6100ee60048036038101906100e99190610e3d565b610270565b005b61010a60048036038101906101059190610e90565b6102cf565b005b61012660048036038101906101219190610ebd565b6103a0565b005b610142600480360381019061013d9190610e90565b61045d565b005b61015e60048036038101906101599190610e90565b610546565b005b61016861062f565b6040516101759190610ef9565b60405180910390f35b61019860048036038101906101939190610f4a565b610639565b6040516101a59190610fd4565b60405180910390f35b6101b6610675565b6040516101c39190610ef9565b60405180910390f35b6101e660048036038101906101e19190610fef565b61067d565b005b6101f06106d5565b6040516101fd919061102b565b60405180910390f35b61020e6106fe565b60405161021b9190610ef9565b60405180910390f35b61023e60048036038101906102399190610f4a565b610708565b005b61025a60048036038101906102559190610e90565b610862565b6040516102679190611061565b60405180910390f35b61027b8383836108b8565b6000600154905061028a610a85565b7ff9e6944a20b1cd07f8a1cbb67e59d0db44c9eff947e6b113b0f571c70e6be67333858584866040516102c195949392919061107c565b60405180910390a150505050565b60008054906101000a900473ffffffffffffffffffffffffffffffffffffffff1673ffffffffffffffffffffffffffffffffffffffff163373ffffffffffffffffffffffffffffffffffffffff161461035d576040517f08c379a00000000000000000000000000000000000000000000000000000000081526004016103549061112c565b60405180910390fd5b806000806101000a81548173ffffffffffffffffffffffffffffffffffffffff021916908373ffffffffffffffffffffffffffffffffffffffff16021790555050565b60008054906101000a900473ffffffffffffffffffffffffffffffffffffffff1673ffffffffffffffffffffffffffffffffffffffff163373ffffffffffffffffffffffffffffffffffffffff161461042e576040517f08c379a00000000000000000000000000000000000000000000000000000000081526004016104259061112c565b60405180910390fd5b60016005600083815260200190815260200160002060006101000a81548160ff02191690831515021790555050565b60008054906101000a900473ffffffffffffffffffffffffffffffffffffffff1673ffffffffffffffffffffffffffffffffffffffff163373ffffffffffffffffffffffffffffffffffffffff16146104eb576040517f08c379a00000000000000000000000000000000000000000000000000000000081526004016104e29061112c565b60405180910390fd5b6000600760008373ffffffffffffffffffffffffffffffffffffffff1673ffffffffffffffffffffffffffffffffffffffff16815260200190815260200160002060006101000a81548160ff02191690831515021790555050565b60008054906101000a900473ffffffffffffffffffffffffffffffffffffffff1673ffffffffffffffffffffffffffffffffffffffff163373ffffffffffffffffffffffffffffffffffffffff16146105d4576040517f08c379a00000000000000000000000000000000000000000000000000000000081526004016105cb9061112c565b60405180910390fd5b6001600760008373ffffffffffffffffffffffffffffffffffffffff1673ffffffffffffffffffffffffffffffffffffffff16815260200190815260200160002060006101000a81548160ff02191690831515021790555050565b6000600254905090565b600085858585856040516020016106549594939291906111d6565b60405160208183030381529060405280519060200120905095945050505050565b600046905090565b61068681610aa0565b600061069182610baa565b905080156106d1577f7b1bcf1ccf901a11589afff5504d59fd0a53780eed2a952adade0348985139e0826040516106c89190610fd4565b60405180910390a15b5050565b60008060009054906101000a900473ffffffffffffffffffffffffffffffffffffffff16905090565b6000600154905090565b60008054906101000a900473ffffffffffffffffffffffffffffffffffffffff1673ffffffffffffffffffffffffffffffffffffffff163373ffffffffffffffffffffffffffffffffffffffff1614610796576040517f08c379a000000000000000000000000000000000000000000000000000000000815260040161078d9061112c565b60405180910390fd5b60066000828152602001908152602001600020600083815260200190815260200160002060009054906101000a900460ff1615610808576040517f08c379a00000000000000000000000000000000000000000000000000000000081526004016107ff90611281565b60405180910390fd5b60006108178686868686610d06565b90507f62819ce06a00ca8a28dd683b302b56c5d85bfc98bafc6d2969d60f4ba6ff3157818688858789604051610852969594939291906112a1565b60405180910390a1505050505050565b6000600760008373ffffffffffffffffffffffffffffffffffffffff1673ffffffffffffffffffffffffffffffffffffffff16815260200190815260200160002060009054906101000a900460ff169050919050565b600082116108fb576040517f08c379a00000000000000000000000000000000000000000000000000000000081526004016108f29061134e565b60405180910390fd5b6005600082815260200190815260200160002060009054906101000a900460ff16801561092f575061092b610675565b8114155b61096e576040517f08c379a0000000000000000000000000000000000000000000000000000000008152600401610965906113ba565b60405180910390fd5b600073ffffffffffffffffffffffffffffffffffffffff168373ffffffffffffffffffffffffffffffffffffffff16036109dd576040517f08c379a00000000000000000000000000000000000000000000000000000000081526004016109d490611426565b60405180910390fd5b600360009054906101000a900473ffffffffffffffffffffffffffffffffffffffff1673ffffffffffffffffffffffffffffffffffffffff166323b872dd3330856040518463ffffffff1660e01b8152600401610a3c93929190611446565b6020604051808303816000875af1158015610a5b573d6000803e3d6000fd5b505050506040513d601f19601f82011682018060405250810190610a7f91906114a9565b50505050565b6001806000828254610a979190611505565b92505081905550565b600760003373ffffffffffffffffffffffffffffffffffffffff1673ffffffffffffffffffffffffffffffffffffffff16815260200190815260200160002060009054906101000a900460ff16610b2c576040517f08c379a0000000000000000000000000000000000000000000000000000000008152600401610b2390611585565b60405180910390fd5b60006004600083815260200190815260200160002090506000816004015403610b8a576040517f08c379a0000000000000000000000000000000000000000000000000000000008152600401610b81906115f1565b60405180910390fd5b6001816006016000828254610b9f9190611505565b925050819055505050565b6000806004600084815260200190815260200160002090506002548160060154118015610be657508060070160009054906101000a900460ff16155b15610ceb57600360009054906101000a900473ffffffffffffffffffffffffffffffffffffffff1673ffffffffffffffffffffffffffffffffffffffff1663a9059cbb8260020160009054906101000a900473ffffffffffffffffffffffffffffffffffffffff1683600301546040518363ffffffff1660e01b8152600401610c70929190611611565b6020604051808303816000875af1158015610c8f573d6000803e3d6000fd5b505050506040513d601f19601f82011682018060405250810190610cb391906114a9565b5060018160070160006101000a81548160ff0219169083151502179055508060070160009054906101000a900460ff16915050610d01565b8060070160009054906101000a900460ff169150505b919050565b600080610d168787878787610639565b90506000600460008381526020019081526020016000209050878160000181905550868160020160006101000a81548173ffffffffffffffffffffffffffffffffffffffff021916908373ffffffffffffffffffffffffffffffffffffffff160217905550858160030181905550848160050181905550838160040181905550819250505095945050505050565b600080fd5b600073ffffffffffffffffffffffffffffffffffffffff82169050919050565b6000610dd482610da9565b9050919050565b610de481610dc9565b8114610def57600080fd5b50565b600081359050610e0181610ddb565b92915050565b6000819050919050565b610e1a81610e07565b8114610e2557600080fd5b50565b600081359050610e3781610e11565b92915050565b600080600060608486031215610e5657610e55610da4565b5b6000610e6486828701610df2565b9350506020610e7586828701610e28565b9250506040610e8686828701610e28565b9150509250925092565b600060208284031215610ea657610ea5610da4565b5b6000610eb484828501610df2565b91505092915050565b600060208284031215610ed357610ed2610da4565b5b6000610ee184828501610e28565b91505092915050565b610ef381610e07565b82525050565b6000602082019050610f0e6000830184610eea565b92915050565b6000819050919050565b610f2781610f14565b8114610f3257600080fd5b50565b600081359050610f4481610f1e565b92915050565b600080600080600060a08688031215610f6657610f65610da4565b5b6000610f7488828901610f35565b9550506020610f8588828901610df2565b9450506040610f9688828901610e28565b9350506060610fa788828901610e28565b9250506080610fb888828901610e28565b9150509295509295909350565b610fce81610f14565b82525050565b6000602082019050610fe96000830184610fc5565b92915050565b60006020828403121561100557611004610da4565b5b600061101384828501610f35565b91505092915050565b61102581610dc9565b82525050565b6000602082019050611040600083018461101c565b92915050565b60008115159050919050565b61105b81611046565b82525050565b60006020820190506110766000830184611052565b92915050565b600060a082019050611091600083018861101c565b61109e602083018761101c565b6110ab6040830186610eea565b6110b86060830185610eea565b6110c56080830184610eea565b9695505050505050565b600082825260208201905092915050565b7f4552523a20494e56414c49442050524f504f5345520000000000000000000000600082015250565b60006111166015836110cf565b9150611121826110e0565b602082019050919050565b6000602082019050818103600083015261114581611109565b9050919050565b6000819050919050565b61116761116282610f14565b61114c565b82525050565b60008160601b9050919050565b60006111858261116d565b9050919050565b60006111978261117a565b9050919050565b6111af6111aa82610dc9565b61118c565b82525050565b6000819050919050565b6111d06111cb82610e07565b6111b5565b82525050565b60006111e28288611156565b6020820191506111f2828761119e565b60148201915061120282866111bf565b60208201915061121282856111bf565b60208201915061122282846111bf565b6020820191508190509695505050505050565b7f4552523a204e4f4e434520414c52454144592050524f43455353454400000000600082015250565b600061126b601c836110cf565b915061127682611235565b602082019050919050565b6000602082019050818103600083015261129a8161125e565b9050919050565b600060c0820190506112b66000830189610fc5565b6112c3602083018861101c565b6112d06040830187610fc5565b6112dd6060830186610eea565b6112ea6080830185610eea565b6112f760a0830184610eea565b979650505050505050565b7f4552523a204e4f4e205a45524f20414d4f554e54205245515549524544000000600082015250565b6000611338601d836110cf565b915061134382611302565b602082019050919050565b600060208201905081810360008301526113678161132b565b9050919050565b7f4552523a20554e535550504f5254454420434841494e20494400000000000000600082015250565b60006113a46019836110cf565b91506113af8261136e565b602082019050919050565b600060208201905081810360008301526113d381611397565b9050919050565b7f4552523a2042524944474520544f205a45524f20414444524553530000000000600082015250565b6000611410601b836110cf565b915061141b826113da565b602082019050919050565b6000602082019050818103600083015261143f81611403565b9050919050565b600060608201905061145b600083018661101c565b611468602083018561101c565b6114756040830184610eea565b949350505050565b61148681611046565b811461149157600080fd5b50565b6000815190506114a38161147d565b92915050565b6000602082840312156114bf576114be610da4565b5b60006114cd84828501611494565b91505092915050565b7f4e487b7100000000000000000000000000000000000000000000000000000000600052601160045260246000fd5b600061151082610e07565b915061151b83610e07565b9250828201905080821115611533576115326114d6565b5b92915050565b7f4552523a204e4f542056414c494441544f520000000000000000000000000000600082015250565b600061156f6012836110cf565b915061157a82611539565b602082019050919050565b6000602082019050818103600083015261159e81611562565b9050919050565b7f4552523a20494e56414c49442050524f504f53414c0000000000000000000000600082015250565b60006115db6015836110cf565b91506115e6826115a5565b602082019050919050565b6000602082019050818103600083015261160a816115ce565b9050919050565b6000604082019050611626600083018561101c565b6116336020830184610eea565b939250505056fea2646970667358221220fbf2ce80ac2f8463abae3b1d68ec8163b87ebb8777ba02085723d4d68750bd5f64736f6c63430008140033",
          "opcodes": "PUSH1 0x80 PUSH1 0x40 MSTORE CALLVALUE DUP1 ISZERO PUSH3 0x11 JUMPI PUSH1 0x0 DUP1 REVERT JUMPDEST POP PUSH1 0x40 MLOAD PUSH3 0x188E CODESIZE SUB DUP1 PUSH3 0x188E DUP4 CODECOPY DUP2 DUP2 ADD PUSH1 0x40 MSTORE DUP2 ADD SWAP1 PUSH3 0x37 SWAP2 SWAP1 PUSH3 0x1B2 JUMP JUMPDEST DUP3 PUSH1 0x0 DUP1 PUSH2 0x100 EXP DUP2 SLOAD DUP2 PUSH20 0xFFFFFFFFFFFFFFFFFFFFFFFFFFFFFFFFFFFFFFFF MUL NOT AND SWAP1 DUP4 PUSH20 0xFFFFFFFFFFFFFFFFFFFFFFFFFFFFFFFFFFFFFFFF AND MUL OR SWAP1 SSTORE POP DUP2 PUSH1 0x3 PUSH1 0x0 PUSH2 0x100 EXP DUP2 SLOAD DUP2 PUSH20 0xFFFFFFFFFFFFFFFFFFFFFFFFFFFFFFFFFFFFFFFF MUL NOT AND SWAP1 DUP4 PUSH20 0xFFFFFFFFFFFFFFFFFFFFFFFFFFFFFFFFFFFFFFFF AND MUL OR SWAP1 SSTORE POP DUP1 PUSH1 0x2 DUP2 SWAP1 SSTORE POP POP POP POP PUSH3 0x20E JUMP JUMPDEST PUSH1 0x0 DUP1 REVERT JUMPDEST PUSH1 0x0 PUSH20 0xFFFFFFFFFFFFFFFFFFFFFFFFFFFFFFFFFFFFFFFF DUP3 AND SWAP1 POP SWAP2 SWAP1 POP JUMP JUMPDEST PUSH1 0x0 PUSH3 0xFA DUP3 PUSH3 0xCD JUMP JUMPDEST SWAP1 POP SWAP2 SWAP1 POP JUMP JUMPDEST PUSH3 0x10C DUP2 PUSH3 0xED JUMP JUMPDEST DUP2 EQ PUSH3 0x118 JUMPI PUSH1 0x0 DUP1 REVERT JUMPDEST POP JUMP JUMPDEST PUSH1 0x0 DUP2 MLOAD SWAP1 POP PUSH3 0x12C DUP2 PUSH3 0x101 JUMP JUMPDEST SWAP3 SWAP2 POP POP JUMP JUMPDEST PUSH1 0x0 PUSH3 0x13F DUP3 PUSH3 0xED JUMP JUMPDEST SWAP1 POP SWAP2 SWAP1 POP JUMP JUMPDEST PUSH3 0x151 DUP2 PUSH3 0x132 JUMP JUMPDEST DUP2 EQ PUSH3 0x15D JUMPI PUSH1 0x0 DUP1 REVERT JUMPDEST POP JUMP JUMPDEST PUSH1 0x0 DUP2 MLOAD SWAP1 POP PUSH3 0x171 DUP2 PUSH3 0x146 JUMP JUMPDEST SWAP3 SWAP2 POP POP JUMP JUMPDEST PUSH1 0x0 DUP2 SWAP1 POP SWAP2 SWAP1 POP JUMP JUMPDEST PUSH3 0x18C DUP2 PUSH3 0x177 JUMP JUMPDEST DUP2 EQ PUSH3 0x198 JUMPI PUSH1 0x0 DUP1 REVERT JUMPDEST POP JUMP JUMPDEST PUSH1 0x0 DUP2 MLOAD SWAP1 POP PUSH3 0x1AC DUP2 PUSH3 0x181 JUMP JUMPDEST SWAP3 SWAP2 POP POP JUMP JUMPDEST PUSH1 0x0 DUP1 PUSH1 0x0 PUSH1 0x60 DUP5 DUP7 SUB SLT ISZERO PUSH3 0x1CE JUMPI PUSH3 0x1CD PUSH3 0xC8 JUMP JUMPDEST JUMPDEST PUSH1 0x0 PUSH3 0x1DE DUP7 DUP3 DUP8 ADD PUSH3 0x11B JUMP JUMPDEST SWAP4 POP POP PUSH1 0x20 PUSH3 0x1F1 DUP7 DUP3 DUP8 ADD PUSH3 0x160 JUMP JUMPDEST SWAP3 POP POP PUSH1 0x40 PUSH3 0x204 DUP7 DUP3 DUP8 ADD PUSH3 0x19B JUMP JUMPDEST SWAP2 POP POP SWAP3 POP SWAP3 POP SWAP3 JUMP JUMPDEST PUSH2 0x1670 DUP1 PUSH3 0x21E PUSH1 0x0 CODECOPY PUSH1 0x0 RETURN INVALID PUSH1 0x80 PUSH1 0x40 MSTORE CALLVALUE DUP1 ISZERO PUSH2 0x10 JUMPI PUSH1 0x0 DUP1 REVERT JUMPDEST POP PUSH1 0x4 CALLDATASIZE LT PUSH2 0xCF JUMPI PUSH1 0x0 CALLDATALOAD PUSH1 0xE0 SHR DUP1 PUSH4 0x5D38BFB2 GT PUSH2 0x8C JUMPI DUP1 PUSH4 0xA8E4FB90 GT PUSH2 0x66 JUMPI DUP1 PUSH4 0xA8E4FB90 EQ PUSH2 0x1E8 JUMPI DUP1 PUSH4 0xAFFED0E0 EQ PUSH2 0x206 JUMPI DUP1 PUSH4 0xBF1727CC EQ PUSH2 0x224 JUMPI DUP1 PUSH4 0xFACD743B EQ PUSH2 0x240 JUMPI PUSH2 0xCF JUMP JUMPDEST DUP1 PUSH4 0x5D38BFB2 EQ PUSH2 0x17E JUMPI DUP1 PUSH4 0x9A8A0592 EQ PUSH2 0x1AE JUMPI DUP1 PUSH4 0xA69BEABA EQ PUSH2 0x1CC JUMPI PUSH2 0xCF JUMP JUMPDEST DUP1 PUSH4 0xEFE6A8B EQ PUSH2 0xD4 JUMPI DUP1 PUSH4 0x1FB4A228 EQ PUSH2 0xF0 JUMPI DUP1 PUSH4 0x20C29BCA EQ PUSH2 0x10C JUMPI DUP1 PUSH4 0x40A141FF EQ PUSH2 0x128 JUMPI DUP1 PUSH4 0x4D238C8E EQ PUSH2 0x144 JUMPI DUP1 PUSH4 0x4FE437D5 EQ PUSH2 0x160 JUMPI JUMPDEST PUSH1 0x0 DUP1 REVERT JUMPDEST PUSH2 0xEE PUSH1 0x4 DUP1 CALLDATASIZE SUB DUP2 ADD SWAP1 PUSH2 0xE9 SWAP2 SWAP1 PUSH2 0xE3D JUMP JUMPDEST PUSH2 0x270 JUMP JUMPDEST STOP JUMPDEST PUSH2 0x10A PUSH1 0x4 DUP1 CALLDATASIZE SUB DUP2 ADD SWAP1 PUSH2 0x105 SWAP2 SWAP1 PUSH2 0xE90 JUMP JUMPDEST PUSH2 0x2CF JUMP JUMPDEST STOP JUMPDEST PUSH2 0x126 PUSH1 0x4 DUP1 CALLDATASIZE SUB DUP2 ADD SWAP1 PUSH2 0x121 SWAP2 SWAP1 PUSH2 0xEBD JUMP JUMPDEST PUSH2 0x3A0 JUMP JUMPDEST STOP JUMPDEST PUSH2 0x142 PUSH1 0x4 DUP1 CALLDATASIZE SUB DUP2 ADD SWAP1 PUSH2 0x13D SWAP2 SWAP1 PUSH2 0xE90 JUMP JUMPDEST PUSH2 0x45D JUMP JUMPDEST STOP JUMPDEST PUSH2 0x15E PUSH1 0x4 DUP1 CALLDATASIZE SUB DUP2 ADD SWAP1 PUSH2 0x159 SWAP2 SWAP1 PUSH2 0xE90 JUMP JUMPDEST PUSH2 0x546 JUMP JUMPDEST STOP JUMPDEST PUSH2 0x168 PUSH2 0x62F JUMP JUMPDEST PUSH1 0x40 MLOAD PUSH2 0x175 SWAP2 SWAP1 PUSH2 0xEF9 JUMP JUMPDEST PUSH1 0x40 MLOAD DUP1 SWAP2 SUB SWAP1 RETURN JUMPDEST PUSH2 0x198 PUSH1 0x4 DUP1 CALLDATASIZE SUB DUP2 ADD SWAP1 PUSH2 0x193 SWAP2 SWAP1 PUSH2 0xF4A JUMP JUMPDEST PUSH2 0x639 JUMP JUMPDEST PUSH1 0x40 MLOAD PUSH2 0x1A5 SWAP2 SWAP1 PUSH2 0xFD4 JUMP JUMPDEST PUSH1 0x40 MLOAD DUP1 SWAP2 SUB SWAP1 RETURN JUMPDEST PUSH2 0x1B6 PUSH2 0x675 JUMP JUMPDEST PUSH1 0x40 MLOAD PUSH2 0x1C3 SWAP2 SWAP1 PUSH2 0xEF9 JUMP JUMPDEST PUSH1 0x40 MLOAD DUP1 SWAP2 SUB SWAP1 RETURN JUMPDEST PUSH2 0x1E6 PUSH1 0x4 DUP1 CALLDATASIZE SUB DUP2 ADD SWAP1 PUSH2 0x1E1 SWAP2 SWAP1 PUSH2 0xFEF JUMP JUMPDEST PUSH2 0x67D JUMP JUMPDEST STOP JUMPDEST PUSH2 0x1F0 PUSH2 0x6D5 JUMP JUMPDEST PUSH1 0x40 MLOAD PUSH2 0x1FD SWAP2 SWAP1 PUSH2 0x102B JUMP JUMPDEST PUSH1 0x40 MLOAD DUP1 SWAP2 SUB SWAP1 RETURN JUMPDEST PUSH2 0x20E PUSH2 0x6FE JUMP JUMPDEST PUSH1 0x40 MLOAD PUSH2 0x21B SWAP2 SWAP1 PUSH2 0xEF9 JUMP JUMPDEST PUSH1 0x40 MLOAD DUP1 SWAP2 SUB SWAP1 RETURN JUMPDEST PUSH2 0x23E PUSH1 0x4 DUP1 CALLDATASIZE SUB DUP2 ADD SWAP1 PUSH2 0x239 SWAP2 SWAP1 PUSH2 0xF4A JUMP JUMPDEST PUSH2 0x708 JUMP JUMPDEST STOP JUMPDEST PUSH2 0x25A PUSH1 0x4 DUP1 CALLDATASIZE SUB DUP2 ADD SWAP1 PUSH2 0x255 SWAP2 SWAP1 PUSH2 0xE90 JUMP JUMPDEST PUSH2 0x862 JUMP JUMPDEST PUSH1 0x40 MLOAD PUSH2 0x267 SWAP2 SWAP1 PUSH2 0x1061 JUMP JUMPDEST PUSH1 0x40 MLOAD DUP1 SWAP2 SUB SWAP1 RETURN JUMPDEST PUSH2 0x27B DUP4 DUP4 DUP4 PUSH2 0x8B8 JUMP JUMPDEST PUSH1 0x0 PUSH1 0x1 SLOAD SWAP1 POP PUSH2 0x28A PUSH2 0xA85 JUMP JUMPDEST PUSH32 0xF9E6944A20B1CD07F8A1CBB67E59D0DB44C9EFF947E6B113B0F571C70E6BE673 CALLER DUP6 DUP6 DUP5 DUP7 PUSH1 0x40 MLOAD PUSH2 0x2C1 SWAP6 SWAP5 SWAP4 SWAP3 SWAP2 SWAP1 PUSH2 0x107C JUMP JUMPDEST PUSH1 0x40 MLOAD DUP1 SWAP2 SUB SWAP1 LOG1 POP POP POP POP JUMP JUMPDEST PUSH1 0x0 DUP1 SLOAD SWAP1 PUSH2 0x100 EXP SWAP1 DIV PUSH20 0xFFFFFFFFFFFFFFFFFFFFFFFFFFFFFFFFFFFFFFFF AND PUSH20 0xFFFFFFFFFFFFFFFFFFFFFFFFFFFFFFFFFFFFFFFF AND CALLER PUSH20 0xFFFFFFFFFFFFFFFFFFFFFFFFFFFFFFFFFFFFFFFF AND EQ PUSH2 0x35D JUMPI PUSH1 0x40 MLOAD PUSH32 0x8C379A000000000000000000000000000000000000000000000000000000000 DUP2 MSTORE PUSH1 0x4 ADD PUSH2 0x354 SWAP1 PUSH2 0x112C JUMP JUMPDEST PUSH1 0x40 MLOAD DUP1 SWAP2 SUB SWAP1 REVERT JUMPDEST DUP1 PUSH1 0x0 DUP1 PUSH2 0x100 EXP DUP2 SLOAD DUP2 PUSH20 0xFFFFFFFFFFFFFFFFFFFFFFFFFFFFFFFFFFFFFFFF MUL NOT AND SWAP1 DUP4 PUSH20 0xFFFFFFFFFFFFFFFFFFFFFFFFFFFFFFFFFFFFFFFF AND MUL OR SWAP1 SSTORE POP POP JUMP JUMPDEST PUSH1 0x0 DUP1 SLOAD SWAP1 PUSH2 0x100 EXP SWAP1 DIV PUSH20 0xFFFFFFFFFFFFFFFFFFFFFFFFFFFFFFFFFFFFFFFF AND PUSH20 0xFFFFFFFFFFFFFFFFFFFFFFFFFFFFFFFFFFFFFFFF AND CALLER PUSH20 0xFFFFFFFFFFFFFFFFFFFFFFFFFFFFFFFFFFFFFFFF AND EQ PUSH2 0x42E JUMPI PUSH1 0x40 MLOAD PUSH32 0x8C379A000000000000000000000000000000000000000000000000000000000 DUP2 MSTORE PUSH1 0x4 ADD PUSH2 0x425 SWAP1 PUSH2 0x112C JUMP JUMPDEST PUSH1 0x40 MLOAD DUP1 SWAP2 SUB SWAP1 REVERT JUMPDEST PUSH1 0x1 PUSH1 0x5 PUSH1 0x0 DUP4 DUP2 MSTORE PUSH1 0x20 ADD SWAP1 DUP2 MSTORE PUSH1 0x20 ADD PUSH1 0x0 KECCAK256 PUSH1 0x0 PUSH2 0x100 EXP DUP2 SLOAD DUP2 PUSH1 0xFF MUL NOT AND SWAP1 DUP4 ISZERO ISZERO MUL OR SWAP1 SSTORE POP POP JUMP JUMPDEST PUSH1 0x0 DUP1 SLOAD SWAP1 PUSH2 0x100 EXP SWAP1 DIV PUSH20 0xFFFFFFFFFFFFFFFFFFFFFFFFFFFFFFFFFFFFFFFF AND PUSH20 0xFFFFFFFFFFFFFFFFFFFFFFFFFFFFFFFFFFFFFFFF AND CALLER PUSH20 0xFFFFFFFFFFFFFFFFFFFFFFFFFFFFFFFFFFFFFFFF AND EQ PUSH2 0x4EB JUMPI PUSH1 0x40 MLOAD PUSH32 0x8C379A000000000000000000000000000000000000000000000000000000000 DUP2 MSTORE PUSH1 0x4 ADD PUSH2 0x4E2 SWAP1 PUSH2 0x112C JUMP JUMPDEST PUSH1 0x40 MLOAD DUP1 SWAP2 SUB SWAP1 REVERT JUMPDEST PUSH1 0x0 PUSH1 0x7 PUSH1 0x0 DUP4 PUSH20 0xFFFFFFFFFFFFFFFFFFFFFFFFFFFFFFFFFFFFFFFF AND PUSH20 0xFFFFFFFFFFFFFFFFFFFFFFFFFFFFFFFFFFFFFFFF AND DUP2 MSTORE PUSH1 0x20 ADD SWAP1 DUP2 MSTORE PUSH1 0x20 ADD PUSH1 0x0 KECCAK256 PUSH1 0x0 PUSH2 0x100 EXP DUP2 SLOAD DUP2 PUSH1 0xFF MUL NOT AND SWAP1 DUP4 ISZERO ISZERO MUL OR SWAP1 SSTORE POP POP JUMP JUMPDEST PUSH1 0x0 DUP1 SLOAD SWAP1 PUSH2 0x100 EXP SWAP1 DIV PUSH20 0xFFFFFFFFFFFFFFFFFFFFFFFFFFFFFFFFFFFFFFFF AND PUSH20 0xFFFFFFFFFFFFFFFFFFFFFFFFFFFFFFFFFFFFFFFF AND CALLER PUSH20 0xFFFFFFFFFFFFFFFFFFFFFFFFFFFFFFFFFFFFFFFF AND EQ PUSH2 0x5D4 JUMPI PUSH1 0x40 MLOAD PUSH32 0x8C379A000000000000000000000000000000000000000000000000000000000 DUP2 MSTORE PUSH1 0x4 ADD PUSH2 0x5CB SWAP1 PUSH2 0x112C JUMP JUMPDEST PUSH1 0x40 MLOAD DUP1 SWAP2 SUB SWAP1 REVERT JUMPDEST PUSH1 0x1 PUSH1 0x7 PUSH1 0x0 DUP4 PUSH20 0xFFFFFFFFFFFFFFFFFFFFFFFFFFFFFFFFFFFFFFFF AND PUSH20 0xFFFFFFFFFFFFFFFFFFFFFFFFFFFFFFFFFFFFFFFF AND DUP2 MSTORE PUSH1 0x20 ADD SWAP1 DUP2 MSTORE PUSH1 0x20 ADD PUSH1 0x0 KECCAK256 PUSH1 0x0 PUSH2 0x100 EXP DUP2 SLOAD DUP2 PUSH1 0xFF MUL NOT AND SWAP1 DUP4 ISZERO ISZERO MUL OR SWAP1 SSTORE POP POP JUMP JUMPDEST PUSH1 0x0 PUSH1 0x2 SLOAD SWAP1 POP SWAP1 JUMP JUMPDEST PUSH1 0x0 DUP6 DUP6 DUP6 DUP6 DUP6 PUSH1 0x40 MLOAD PUSH1 0x20 ADD PUSH2 0x654 SWAP6 SWAP5 SWAP4 SWAP3 SWAP2 SWAP1 PUSH2 0x11D6 JUMP JUMPDEST PUSH1 0x40 MLOAD PUSH1 0x20 DUP2 DUP4 SUB SUB DUP2 MSTORE SWAP1 PUSH1 0x40 MSTORE DUP1 MLOAD SWAP1 PUSH1 0x20 ADD KECCAK256 SWAP1 POP SWAP6 SWAP5 POP POP POP POP POP JUMP JUMPDEST PUSH1 0x0 CHAINID SWAP1 POP SWAP1 JUMP JUMPDEST PUSH2 0x686 DUP2 PUSH2 0xAA0 JUMP JUMPDEST PUSH1 0x0 PUSH2 0x691 DUP3 PUSH2 0xBAA JUMP JUMPDEST SWAP1 POP DUP1 ISZERO PUSH2 0x6D1 JUMPI PUSH32 0x7B1BCF1CCF901A11589AFFF5504D59FD0A53780EED2A952ADADE0348985139E0 DUP3 PUSH1 0x40 MLOAD PUSH2 0x6C8 SWAP2 SWAP1 PUSH2 0xFD4 JUMP JUMPDEST PUSH1 0x40 MLOAD DUP1 SWAP2 SUB SWAP1 LOG1 JUMPDEST POP POP JUMP JUMPDEST PUSH1 0x0 DUP1 PUSH1 0x0 SWAP1 SLOAD SWAP1 PUSH2 0x100 EXP SWAP1 DIV PUSH20 0xFFFFFFFFFFFFFFFFFFFFFFFFFFFFFFFFFFFFFFFF AND SWAP1 POP SWAP1 JUMP JUMPDEST PUSH1 0x0 PUSH1 0x1 SLOAD SWAP1 POP SWAP1 JUMP JUMPDEST PUSH1 0x0 DUP1 SLOAD SWAP1 PUSH2 0x100 EXP SWAP1 DIV PUSH20 0xFFFFFFFFFFFFFFFFFFFFFFFFFFFFFFFFFFFFFFFF AND PUSH20 0xFFFFFFFFFFFFFFFFFFFFFFFFFFFFFFFFFFFFFFFF AND CALLER PUSH20 0xFFFFFFFFFFFFFFFFFFFFFFFFFFFFFFFFFFFFFFFF AND EQ PUSH2 0x796 JUMPI PUSH1 0x40 MLOAD PUSH32 0x8C379A000000000000000000000000000000000000000000000000000000000 DUP2 MSTORE PUSH1 0x4 ADD PUSH2 0x78D SWAP1 PUSH2 0x112C JUMP JUMPDEST PUSH1 0x40 MLOAD DUP1 SWAP2 SUB SWAP1 REVERT JUMPDEST PUSH1 0x6 PUSH1 0x0 DUP3 DUP2 MSTORE PUSH1 0x20 ADD SWAP1 DUP2 MSTORE PUSH1 0x20 ADD PUSH1 0x0 KECCAK256 PUSH1 0x0 DUP4 DUP2 MSTORE PUSH1 0x20 ADD SWAP1 DUP2 MSTORE PUSH1 0x20 ADD PUSH1 0x0 KECCAK256 PUSH1 0x0 SWAP1 SLOAD SWAP1 PUSH2 0x100 EXP SWAP1 DIV PUSH1 0xFF AND ISZERO PUSH2 0x808 JUMPI PUSH1 0x40 MLOAD PUSH32 0x8C379A000000000000000000000000000000000000000000000000000000000 DUP2 MSTORE PUSH1 0x4 ADD PUSH2 0x7FF SWAP1 PUSH2 0x1281 JUMP JUMPDEST PUSH1 0x40 MLOAD DUP1 SWAP2 SUB SWAP1 REVERT JUMPDEST PUSH1 0x0 PUSH2 0x817 DUP7 DUP7 DUP7 DUP7 DUP7 PUSH2 0xD06 JUMP JUMPDEST SWAP1 POP PUSH32 0x62819CE06A00CA8A28DD683B302B56C5D85BFC98BAFC6D2969D60F4BA6FF3157 DUP2 DUP7 DUP9 DUP6 DUP8 DUP10 PUSH1 0x40 MLOAD PUSH2 0x852 SWAP7 SWAP6 SWAP5 SWAP4 SWAP3 SWAP2 SWAP1 PUSH2 0x12A1 JUMP JUMPDEST PUSH1 0x40 MLOAD DUP1 SWAP2 SUB SWAP1 LOG1 POP POP POP POP POP POP JUMP JUMPDEST PUSH1 0x0 PUSH1 0x7 PUSH1 0x0 DUP4 PUSH20 0xFFFFFFFFFFFFFFFFFFFFFFFFFFFFFFFFFFFFFFFF AND PUSH20 0xFFFFFFFFFFFFFFFFFFFFFFFFFFFFFFFFFFFFFFFF AND DUP2 MSTORE PUSH1 0x20 ADD SWAP1 DUP2 MSTORE PUSH1 0x20 ADD PUSH1 0x0 KECCAK256 PUSH1 0x0 SWAP1 SLOAD SWAP1 PUSH2 0x100 EXP SWAP1 DIV PUSH1 0xFF AND SWAP1 POP SWAP2 SWAP1 POP JUMP JUMPDEST PUSH1 0x0 DUP3 GT PUSH2 0x8FB JUMPI PUSH1 0x40 MLOAD PUSH32 0x8C379A000000000000000000000000000000000000000000000000000000000 DUP2 MSTORE PUSH1 0x4 ADD PUSH2 0x8F2 SWAP1 PUSH2 0x134E JUMP JUMPDEST PUSH1 0x40 MLOAD DUP1 SWAP2 SUB SWAP1 REVERT JUMPDEST PUSH1 0x5 PUSH1 0x0 DUP3 DUP2 MSTORE PUSH1 0x20 ADD SWAP1 DUP2 MSTORE PUSH1 0x20 ADD PUSH1 0x0 KECCAK256 PUSH1 0x0 SWAP1 SLOAD SWAP1 PUSH2 0x100 EXP SWAP1 DIV PUSH1 0xFF AND DUP1 ISZERO PUSH2 0x92F JUMPI POP PUSH2 0x92B PUSH2 0x675 JUMP JUMPDEST DUP2 EQ ISZERO JUMPDEST PUSH2 0x96E JUMPI PUSH1 0x40 MLOAD PUSH32 0x8C379A000000000000000000000000000000000000000000000000000000000 DUP2 MSTORE PUSH1 0x4 ADD PUSH2 0x965 SWAP1 PUSH2 0x13BA JUMP JUMPDEST PUSH1 0x40 MLOAD DUP1 SWAP2 SUB SWAP1 REVERT JUMPDEST PUSH1 0x0 PUSH20 0xFFFFFFFFFFFFFFFFFFFFFFFFFFFFFFFFFFFFFFFF AND DUP4 PUSH20 0xFFFFFFFFFFFFFFFFFFFFFFFFFFFFFFFFFFFFFFFF AND SUB PUSH2 0x9DD JUMPI PUSH1 0x40 MLOAD PUSH32 0x8C379A000000000000000000000000000000000000000000000000000000000 DUP2 MSTORE PUSH1 0x4 ADD PUSH2 0x9D4 SWAP1 PUSH2 0x1426 JUMP JUMPDEST PUSH1 0x40 MLOAD DUP1 SWAP2 SUB SWAP1 REVERT JUMPDEST PUSH1 0x3 PUSH1 0x0 SWAP1 SLOAD SWAP1 PUSH2 0x100 EXP SWAP1 DIV PUSH20 0xFFFFFFFFFFFFFFFFFFFFFFFFFFFFFFFFFFFFFFFF AND PUSH20 0xFFFFFFFFFFFFFFFFFFFFFFFFFFFFFFFFFFFFFFFF AND PUSH4 0x23B872DD CALLER ADDRESS DUP6 PUSH1 0x40 MLOAD DUP5 PUSH4 0xFFFFFFFF AND PUSH1 0xE0 SHL DUP2 MSTORE PUSH1 0x4 ADD PUSH2 0xA3C SWAP4 SWAP3 SWAP2 SWAP1 PUSH2 0x1446 JUMP JUMPDEST PUSH1 0x20 PUSH1 0x40 MLOAD DUP1 DUP4 SUB DUP2 PUSH1 0x0 DUP8 GAS CALL ISZERO DUP1 ISZERO PUSH2 0xA5B JUMPI RETURNDATASIZE PUSH1 0x0 DUP1 RETURNDATACOPY RETURNDATASIZE PUSH1 0x0 REVERT JUMPDEST POP POP POP POP PUSH1 0x40 MLOAD RETURNDATASIZE PUSH1 0x1F NOT PUSH1 0x1F DUP3 ADD AND DUP3 ADD DUP1 PUSH1 0x40 MSTORE POP DUP2 ADD SWAP1 PUSH2 0xA7F SWAP2 SWAP1 PUSH2 0x14A9 JUMP JUMPDEST POP POP POP POP JUMP JUMPDEST PUSH1 0x1 DUP1 PUSH1 0x0 DUP3 DUP3 SLOAD PUSH2 0xA97 SWAP2 SWAP1 PUSH2 0x1505 JUMP JUMPDEST SWAP3 POP POP DUP2 SWAP1 SSTORE POP JUMP JUMPDEST PUSH1 0x7 PUSH1 0x0 CALLER PUSH20 0xFFFFFFFFFFFFFFFFFFFFFFFFFFFFFFFFFFFFFFFF AND PUSH20 0xFFFFFFFFFFFFFFFFFFFFFFFFFFFFFFFFFFFFFFFF AND DUP2 MSTORE PUSH1 0x20 ADD SWAP1 DUP2 MSTORE PUSH1 0x20 ADD PUSH1 0x0 KECCAK256 PUSH1 0x0 SWAP1 SLOAD SWAP1 PUSH2 0x100 EXP SWAP1 DIV PUSH1 0xFF AND PUSH2 0xB2C JUMPI PUSH1 0x40 MLOAD PUSH32 0x8C379A000000000000000000000000000000000000000000000000000000000 DUP2 MSTORE PUSH1 0x4 ADD PUSH2 0xB23 SWAP1 PUSH2 0x1585 JUMP JUMPDEST PUSH1 0x40 MLOAD DUP1 SWAP2 SUB SWAP1 REVERT JUMPDEST PUSH1 0x0 PUSH1 0x4 PUSH1 0x0 DUP4 DUP2 MSTORE PUSH1 0x20 ADD SWAP1 DUP2 MSTORE PUSH1 0x20 ADD PUSH1 0x0 KECCAK256 SWAP1 POP PUSH1 0x0 DUP2 PUSH1 0x4 ADD SLOAD SUB PUSH2 0xB8A JUMPI PUSH1 0x40 MLOAD PUSH32 0x8C379A000000000000000000000000000000000000000000000000000000000 DUP2 MSTORE PUSH1 0x4 ADD PUSH2 0xB81 SWAP1 PUSH2 0x15F1 JUMP JUMPDEST PUSH1 0x40 MLOAD DUP1 SWAP2 SUB SWAP1 REVERT JUMPDEST PUSH1 0x1 DUP2 PUSH1 0x6 ADD PUSH1 0x0 DUP3 DUP3 SLOAD PUSH2 0xB9F SWAP2 SWAP1 PUSH2 0x1505 JUMP JUMPDEST SWAP3 POP POP DUP2 SWAP1 SSTORE POP POP POP JUMP JUMPDEST PUSH1 0x0 DUP1 PUSH1 0x4 PUSH1 0x0 DUP5 DUP2 MSTORE PUSH1 0x20 ADD SWAP1 DUP2 MSTORE PUSH1 0x20 ADD PUSH1 0x0 KECCAK256 SWAP1 POP PUSH1 0x2 SLOAD DUP2 PUSH1 0x6 ADD SLOAD GT DUP1 ISZERO PUSH2 0xBE6 JUMPI POP DUP1 PUSH1 0x7 ADD PUSH1 0x0 SWAP1 SLOAD SWAP1 PUSH2 0x100 EXP SWAP1 DIV PUSH1 0xFF AND ISZERO JUMPDEST ISZERO PUSH2 0xCEB JUMPI PUSH1 0x3 PUSH1 0x0 SWAP1 SLOAD SWAP1 PUSH2 0x100 EXP SWAP1 DIV PUSH20 0xFFFFFFFFFFFFFFFFFFFFFFFFFFFFFFFFFFFFFFFF AND PUSH20 0xFFFFFFFFFFFFFFFFFFFFFFFFFFFFFFFFFFFFFFFF AND PUSH4 0xA9059CBB DUP3 PUSH1 0x2 ADD PUSH1 0x0 SWAP1 SLOAD SWAP1 PUSH2 0x100 EXP SWAP1 DIV PUSH20 0xFFFFFFFFFFFFFFFFFFFFFFFFFFFFFFFFFFFFFFFF AND DUP4 PUSH1 0x3 ADD SLOAD PUSH1 0x40 MLOAD DUP4 PUSH4 0xFFFFFFFF AND PUSH1 0xE0 SHL DUP2 MSTORE PUSH1 0x4 ADD PUSH2 0xC70 SWAP3 SWAP2 SWAP1 PUSH2 0x1611 JUMP JUMPDEST PUSH1 0x20 PUSH1 0x40 MLOAD DUP1 DUP4 SUB DUP2 PUSH1 0x0 DUP8 GAS CALL ISZERO DUP1 ISZERO PUSH2 0xC8F JUMPI RETURNDATASIZE PUSH1 0x0 DUP1 RETURNDATACOPY RETURNDATASIZE PUSH1 0x0 REVERT JUMPDEST POP POP POP POP PUSH1 0x40 MLOAD RETURNDATASIZE PUSH1 0x1F NOT PUSH1 0x1F DUP3 ADD AND DUP3 ADD DUP1 PUSH1 0x40 MSTORE POP DUP2 ADD SWAP1 PUSH2 0xCB3 SWAP2 SWAP1 PUSH2 0x14A9 JUMP JUMPDEST POP PUSH1 0x1 DUP2 PUSH1 0x7 ADD PUSH1 0x0 PUSH2 0x100 EXP DUP2 SLOAD DUP2 PUSH1 0xFF MUL NOT AND SWAP1 DUP4 ISZERO ISZERO MUL OR SWAP1 SSTORE POP DUP1 PUSH1 0x7 ADD PUSH1 0x0 SWAP1 SLOAD SWAP1 PUSH2 0x100 EXP SWAP1 DIV PUSH1 0xFF AND SWAP2 POP POP PUSH2 0xD01 JUMP JUMPDEST DUP1 PUSH1 0x7 ADD PUSH1 0x0 SWAP1 SLOAD SWAP1 PUSH2 0x100 EXP SWAP1 DIV PUSH1 0xFF AND SWAP2 POP POP JUMPDEST SWAP2 SWAP1 POP JUMP JUMPDEST PUSH1 0x0 DUP1 PUSH2 0xD16 DUP8 DUP8 DUP8 DUP8 DUP8 PUSH2 0x639 JUMP JUMPDEST SWAP1 POP PUSH1 0x0 PUSH1 0x4 PUSH1 0x0 DUP4 DUP2 MSTORE PUSH1 0x20 ADD SWAP1 DUP2 MSTORE PUSH1 0x20 ADD PUSH1 0x0 KECCAK256 SWAP1 POP DUP8 DUP2 PUSH1 0x0 ADD DUP2 SWAP1 SSTORE POP DUP7 DUP2 PUSH1 0x2 ADD PUSH1 0x0 PUSH2 0x100 EXP DUP2 SLOAD DUP2 PUSH20 0xFFFFFFFFFFFFFFFFFFFFFFFFFFFFFFFFFFFFFFFF MUL NOT AND SWAP1 DUP4 PUSH20 0xFFFFFFFFFFFFFFFFFFFFFFFFFFFFFFFFFFFFFFFF AND MUL OR SWAP1 SSTORE POP DUP6 DUP2 PUSH1 0x3 ADD DUP2 SWAP1 SSTORE POP DUP5 DUP2 PUSH1 0x5 ADD DUP2 SWAP1 SSTORE POP DUP4 DUP2 PUSH1 0x4 ADD DUP2 SWAP1 SSTORE POP DUP2 SWAP3 POP POP POP SWAP6 SWAP5 POP POP POP POP POP JUMP JUMPDEST PUSH1 0x0 DUP1 REVERT JUMPDEST PUSH1 0x0 PUSH20 0xFFFFFFFFFFFFFFFFFFFFFFFFFFFFFFFFFFFFFFFF DUP3 AND SWAP1 POP SWAP2 SWAP1 POP JUMP JUMPDEST PUSH1 0x0 PUSH2 0xDD4 DUP3 PUSH2 0xDA9 JUMP JUMPDEST SWAP1 POP SWAP2 SWAP1 POP JUMP JUMPDEST PUSH2 0xDE4 DUP2 PUSH2 0xDC9 JUMP JUMPDEST DUP2 EQ PUSH2 0xDEF JUMPI PUSH1 0x0 DUP1 REVERT JUMPDEST POP JUMP JUMPDEST PUSH1 0x0 DUP2 CALLDATALOAD SWAP1 POP PUSH2 0xE01 DUP2 PUSH2 0xDDB JUMP JUMPDEST SWAP3 SWAP2 POP POP JUMP JUMPDEST PUSH1 0x0 DUP2 SWAP1 POP SWAP2 SWAP1 POP JUMP JUMPDEST PUSH2 0xE1A DUP2 PUSH2 0xE07 JUMP JUMPDEST DUP2 EQ PUSH2 0xE25 JUMPI PUSH1 0x0 DUP1 REVERT JUMPDEST POP JUMP JUMPDEST PUSH1 0x0 DUP2 CALLDATALOAD SWAP1 POP PUSH2 0xE37 DUP2 PUSH2 0xE11 JUMP JUMPDEST SWAP3 SWAP2 POP POP JUMP JUMPDEST PUSH1 0x0 DUP1 PUSH1 0x0 PUSH1 0x60 DUP5 DUP7 SUB SLT ISZERO PUSH2 0xE56 JUMPI PUSH2 0xE55 PUSH2 0xDA4 JUMP JUMPDEST JUMPDEST PUSH1 0x0 PUSH2 0xE64 DUP7 DUP3 DUP8 ADD PUSH2 0xDF2 JUMP JUMPDEST SWAP4 POP POP PUSH1 0x20 PUSH2 0xE75 DUP7 DUP3 DUP8 ADD PUSH2 0xE28 JUMP JUMPDEST SWAP3 POP POP PUSH1 0x40 PUSH2 0xE86 DUP7 DUP3 DUP8 ADD PUSH2 0xE28 JUMP JUMPDEST SWAP2 POP POP SWAP3 POP SWAP3 POP SWAP3 JUMP JUMPDEST PUSH1 0x0 PUSH1 0x20 DUP3 DUP5 SUB SLT ISZERO PUSH2 0xEA6 JUMPI PUSH2 0xEA5 PUSH2 0xDA4 JUMP JUMPDEST JUMPDEST PUSH1 0x0 PUSH2 0xEB4 DUP5 DUP3 DUP6 ADD PUSH2 0xDF2 JUMP JUMPDEST SWAP2 POP POP SWAP3 SWAP2 POP POP JUMP JUMPDEST PUSH1 0x0 PUSH1 0x20 DUP3 DUP5 SUB SLT ISZERO PUSH2 0xED3 JUMPI PUSH2 0xED2 PUSH2 0xDA4 JUMP JUMPDEST JUMPDEST PUSH1 0x0 PUSH2 0xEE1 DUP5 DUP3 DUP6 ADD PUSH2 0xE28 JUMP JUMPDEST SWAP2 POP POP SWAP3 SWAP2 POP POP JUMP JUMPDEST PUSH2 0xEF3 DUP2 PUSH2 0xE07 JUMP JUMPDEST DUP3 MSTORE POP POP JUMP JUMPDEST PUSH1 0x0 PUSH1 0x20 DUP3 ADD SWAP1 POP PUSH2 0xF0E PUSH1 0x0 DUP4 ADD DUP5 PUSH2 0xEEA JUMP JUMPDEST SWAP3 SWAP2 POP POP JUMP JUMPDEST PUSH1 0x0 DUP2 SWAP1 POP SWAP2 SWAP1 POP JUMP JUMPDEST PUSH2 0xF27 DUP2 PUSH2 0xF14 JUMP JUMPDEST DUP2 EQ PUSH2 0xF32 JUMPI PUSH1 0x0 DUP1 REVERT JUMPDEST POP JUMP JUMPDEST PUSH1 0x0 DUP2 CALLDATALOAD SWAP1 POP PUSH2 0xF44 DUP2 PUSH2 0xF1E JUMP JUMPDEST SWAP3 SWAP2 POP POP JUMP JUMPDEST PUSH1 0x0 DUP1 PUSH1 0x0 DUP1 PUSH1 0x0 PUSH1 0xA0 DUP7 DUP9 SUB SLT ISZERO PUSH2 0xF66 JUMPI PUSH2 0xF65 PUSH2 0xDA4 JUMP JUMPDEST JUMPDEST PUSH1 0x0 PUSH2 0xF74 DUP9 DUP3 DUP10 ADD PUSH2 0xF35 JUMP JUMPDEST SWAP6 POP POP PUSH1 0x20 PUSH2 0xF85 DUP9 DUP3 DUP10 ADD PUSH2 0xDF2 JUMP JUMPDEST SWAP5 POP POP PUSH1 0x40 PUSH2 0xF96 DUP9 DUP3 DUP10 ADD PUSH2 0xE28 JUMP JUMPDEST SWAP4 POP POP PUSH1 0x60 PUSH2 0xFA7 DUP9 DUP3 DUP10 ADD PUSH2 0xE28 JUMP JUMPDEST SWAP3 POP POP PUSH1 0x80 PUSH2 0xFB8 DUP9 DUP3 DUP10 ADD PUSH2 0xE28 JUMP JUMPDEST SWAP2 POP POP SWAP3 SWAP6 POP SWAP3 SWAP6 SWAP1 SWAP4 POP JUMP JUMPDEST PUSH2 0xFCE DUP2 PUSH2 0xF14 JUMP JUMPDEST DUP3 MSTORE POP POP JUMP JUMPDEST PUSH1 0x0 PUSH1 0x20 DUP3 ADD SWAP1 POP PUSH2 0xFE9 PUSH1 0x0 DUP4 ADD DUP5 PUSH2 0xFC5 JUMP JUMPDEST SWAP3 SWAP2 POP POP JUMP JUMPDEST PUSH1 0x0 PUSH1 0x20 DUP3 DUP5 SUB SLT ISZERO PUSH2 0x1005 JUMPI PUSH2 0x1004 PUSH2 0xDA4 JUMP JUMPDEST JUMPDEST PUSH1 0x0 PUSH2 0x1013 DUP5 DUP3 DUP6 ADD PUSH2 0xF35 JUMP JUMPDEST SWAP2 POP POP SWAP3 SWAP2 POP POP JUMP JUMPDEST PUSH2 0x1025 DUP2 PUSH2 0xDC9 JUMP JUMPDEST DUP3 MSTORE POP POP JUMP JUMPDEST PUSH1 0x0 PUSH1 0x20 DUP3 ADD SWAP1 POP PUSH2 0x1040 PUSH1 0x0 DUP4 ADD DUP5 PUSH2 0x101C JUMP JUMPDEST SWAP3 SWAP2 POP POP JUMP JUMPDEST PUSH1 0x0 DUP2 ISZERO ISZERO SWAP1 POP SWAP2 SWAP1 POP JUMP JUMPDEST PUSH2 0x105B DUP2 PUSH2 0x1046 JUMP JUMPDEST DUP3 MSTORE POP POP JUMP JUMPDEST PUSH1 0x0 PUSH1 0x20 DUP3 ADD SWAP1 POP PUSH2 0x1076 PUSH1 0x0 DUP4 ADD DUP5 PUSH2 0x1052 JUMP JUMPDEST SWAP3 SWAP2 POP POP JUMP JUMPDEST PUSH1 0x0 PUSH1 0xA0 DUP3 ADD SWAP1 POP PUSH2 0x1091 PUSH1 0x0 DUP4 ADD DUP9 PUSH2 0x101C JUMP JUMPDEST PUSH2 0x109E PUSH1 0x20 DUP4 ADD DUP8 PUSH2 0x101C JUMP JUMPDEST PUSH2 0x10AB PUSH1 0x40 DUP4 ADD DUP7 PUSH2 0xEEA JUMP JUMPDEST PUSH2 0x10B8 PUSH1 0x60 DUP4 ADD DUP6 PUSH2 0xEEA JUMP JUMPDEST PUSH2 0x10C5 PUSH1 0x80 DUP4 ADD DUP5 PUSH2 0xEEA JUMP JUMPDEST SWAP7 SWAP6 POP POP POP POP POP POP JUMP JUMPDEST PUSH1 0x0 DUP3 DUP3 MSTORE PUSH1 0x20 DUP3 ADD SWAP1 POP SWAP3 SWAP2 POP POP JUMP JUMPDEST PUSH32 0x4552523A20494E56414C49442050524F504F5345520000000000000000000000 PUSH1 0x0 DUP3 ADD MSTORE POP JUMP JUMPDEST PUSH1 0x0 PUSH2 0x1116 PUSH1 0x15 DUP4 PUSH2 0x10CF JUMP JUMPDEST SWAP2 POP PUSH2 0x1121 DUP3 PUSH2 0x10E0 JUMP JUMPDEST PUSH1 0x20 DUP3 ADD SWAP1 POP SWAP2 SWAP1 POP JUMP JUMPDEST PUSH1 0x0 PUSH1 0x20 DUP3 ADD SWAP1 POP DUP2 DUP2 SUB PUSH1 0x0 DUP4 ADD MSTORE PUSH2 0x1145 DUP2 PUSH2 0x1109 JUMP JUMPDEST SWAP1 POP SWAP2 SWAP1 POP JUMP JUMPDEST PUSH1 0x0 DUP2 SWAP1 POP SWAP2 SWAP1 POP JUMP JUMPDEST PUSH2 0x1167 PUSH2 0x1162 DUP3 PUSH2 0xF14 JUMP JUMPDEST PUSH2 0x114C JUMP JUMPDEST DUP3 MSTORE POP POP JUMP JUMPDEST PUSH1 0x0 DUP2 PUSH1 0x60 SHL SWAP1 POP SWAP2 SWAP1 POP JUMP JUMPDEST PUSH1 0x0 PUSH2 0x1185 DUP3 PUSH2 0x116D JUMP JUMPDEST SWAP1 POP SWAP2 SWAP1 POP JUMP JUMPDEST PUSH1 0x0 PUSH2 0x1197 DUP3 PUSH2 0x117A JUMP JUMPDEST SWAP1 POP SWAP2 SWAP1 POP JUMP JUMPDEST PUSH2 0x11AF PUSH2 0x11AA DUP3 PUSH2 0xDC9 JUMP JUMPDEST PUSH2 0x118C JUMP JUMPDEST DUP3 MSTORE POP POP JUMP JUMPDEST PUSH1 0x0 DUP2 SWAP1 POP SWAP2 SWAP1 POP JUMP JUMPDEST PUSH2 0x11D0 PUSH2 0x11CB DUP3 PUSH2 0xE07 JUMP JUMPDEST PUSH2 0x11B5 JUMP JUMPDEST DUP3 MSTORE POP POP JUMP JUMPDEST PUSH1 0x0 PUSH2 0x11E2 DUP3 DUP9 PUSH2 0x1156 JUMP JUMPDEST PUSH1 0x20 DUP3 ADD SWAP2 POP PUSH2 0x11F2 DUP3 DUP8 PUSH2 0x119E JUMP JUMPDEST PUSH1 0x14 DUP3 ADD SWAP2 POP PUSH2 0x1202 DUP3 DUP7 PUSH2 0x11BF JUMP JUMPDEST PUSH1 0x20 DUP3 ADD SWAP2 POP PUSH2 0x1212 DUP3 DUP6 PUSH2 0x11BF JUMP JUMPDEST PUSH1 0x20 DUP3 ADD SWAP2 POP PUSH2 0x1222 DUP3 DUP5 PUSH2 0x11BF JUMP JUMPDEST PUSH1 0x20 DUP3 ADD SWAP2 POP DUP2 SWAP1 POP SWAP7 SWAP6 POP POP POP POP POP POP JUMP JUMPDEST PUSH32 0x4552523A204E4F4E434520414C52454144592050524F43455353454400000000 PUSH1 0x0 DUP3 ADD MSTORE POP JUMP JUMPDEST PUSH1 0x0 PUSH2 0x126B PUSH1 0x1C DUP4 PUSH2 0x10CF JUMP JUMPDEST SWAP2 POP PUSH2 0x1276 DUP3 PUSH2 0x1235 JUMP JUMPDEST PUSH1 0x20 DUP3 ADD SWAP1 POP SWAP2 SWAP1 POP JUMP JUMPDEST PUSH1 0x0 PUSH1 0x20 DUP3 ADD SWAP1 POP DUP2 DUP2 SUB PUSH1 0x0 DUP4 ADD MSTORE PUSH2 0x129A DUP2 PUSH2 0x125E JUMP JUMPDEST SWAP1 POP SWAP2 SWAP1 POP JUMP JUMPDEST PUSH1 0x0 PUSH1 0xC0 DUP3 ADD SWAP1 POP PUSH2 0x12B6 PUSH1 0x0 DUP4 ADD DUP10 PUSH2 0xFC5 JUMP JUMPDEST PUSH2 0x12C3 PUSH1 0x20 DUP4 ADD DUP9 PUSH2 0x101C JUMP JUMPDEST PUSH2 0x12D0 PUSH1 0x40 DUP4 ADD DUP8 PUSH2 0xFC5 JUMP JUMPDEST PUSH2 0x12DD PUSH1 0x60 DUP4 ADD DUP7 PUSH2 0xEEA JUMP JUMPDEST PUSH2 0x12EA PUSH1 0x80 DUP4 ADD DUP6 PUSH2 0xEEA JUMP JUMPDEST PUSH2 0x12F7 PUSH1 0xA0 DUP4 ADD DUP5 PUSH2 0xEEA JUMP JUMPDEST SWAP8 SWAP7 POP POP POP POP POP POP POP JUMP JUMPDEST PUSH32 0x4552523A204E4F4E205A45524F20414D4F554E54205245515549524544000000 PUSH1 0x0 DUP3 ADD MSTORE POP JUMP JUMPDEST PUSH1 0x0 PUSH2 0x1338 PUSH1 0x1D DUP4 PUSH2 0x10CF JUMP JUMPDEST SWAP2 POP PUSH2 0x1343 DUP3 PUSH2 0x1302 JUMP JUMPDEST PUSH1 0x20 DUP3 ADD SWAP1 POP SWAP2 SWAP1 POP JUMP JUMPDEST PUSH1 0x0 PUSH1 0x20 DUP3 ADD SWAP1 POP DUP2 DUP2 SUB PUSH1 0x0 DUP4 ADD MSTORE PUSH2 0x1367 DUP2 PUSH2 0x132B JUMP JUMPDEST SWAP1 POP SWAP2 SWAP1 POP JUMP JUMPDEST PUSH32 0x4552523A20554E535550504F5254454420434841494E20494400000000000000 PUSH1 0x0 DUP3 ADD MSTORE POP JUMP JUMPDEST PUSH1 0x0 PUSH2 0x13A4 PUSH1 0x19 DUP4 PUSH2 0x10CF JUMP JUMPDEST SWAP2 POP PUSH2 0x13AF DUP3 PUSH2 0x136E JUMP JUMPDEST PUSH1 0x20 DUP3 ADD SWAP1 POP SWAP2 SWAP1 POP JUMP JUMPDEST PUSH1 0x0 PUSH1 0x20 DUP3 ADD SWAP1 POP DUP2 DUP2 SUB PUSH1 0x0 DUP4 ADD MSTORE PUSH2 0x13D3 DUP2 PUSH2 0x1397 JUMP JUMPDEST SWAP1 POP SWAP2 SWAP1 POP JUMP JUMPDEST PUSH32 0x4552523A2042524944474520544F205A45524F20414444524553530000000000 PUSH1 0x0 DUP3 ADD MSTORE POP JUMP JUMPDEST PUSH1 0x0 PUSH2 0x1410 PUSH1 0x1B DUP4 PUSH2 0x10CF JUMP JUMPDEST SWAP2 POP PUSH2 0x141B DUP3 PUSH2 0x13DA JUMP JUMPDEST PUSH1 0x20 DUP3 ADD SWAP1 POP SWAP2 SWAP1 POP JUMP JUMPDEST PUSH1 0x0 PUSH1 0x20 DUP3 ADD SWAP1 POP DUP2 DUP2 SUB PUSH1 0x0 DUP4 ADD MSTORE PUSH2 0x143F DUP2 PUSH2 0x1403 JUMP JUMPDEST SWAP1 POP SWAP2 SWAP1 POP JUMP JUMPDEST PUSH1 0x0 PUSH1 0x60 DUP3 ADD SWAP1 POP PUSH2 0x145B PUSH1 0x0 DUP4 ADD DUP7 PUSH2 0x101C JUMP JUMPDEST PUSH2 0x1468 PUSH1 0x20 DUP4 ADD DUP6 PUSH2 0x101C JUMP JUMPDEST PUSH2 0x1475 PUSH1 0x40 DUP4 ADD DUP5 PUSH2 0xEEA JUMP JUMPDEST SWAP5 SWAP4 POP POP POP POP JUMP JUMPDEST PUSH2 0x1486 DUP2 PUSH2 0x1046 JUMP JUMPDEST DUP2 EQ PUSH2 0x1491 JUMPI PUSH1 0x0 DUP1 REVERT JUMPDEST POP JUMP JUMPDEST PUSH1 0x0 DUP2 MLOAD SWAP1 POP PUSH2 0x14A3 DUP2 PUSH2 0x147D JUMP JUMPDEST SWAP3 SWAP2 POP POP JUMP JUMPDEST PUSH1 0x0 PUSH1 0x20 DUP3 DUP5 SUB SLT ISZERO PUSH2 0x14BF JUMPI PUSH2 0x14BE PUSH2 0xDA4 JUMP JUMPDEST JUMPDEST PUSH1 0x0 PUSH2 0x14CD DUP5 DUP3 DUP6 ADD PUSH2 0x1494 JUMP JUMPDEST SWAP2 POP POP SWAP3 SWAP2 POP POP JUMP JUMPDEST PUSH32 0x4E487B7100000000000000000000000000000000000000000000000000000000 PUSH1 0x0 MSTORE PUSH1 0x11 PUSH1 0x4 MSTORE PUSH1 0x24 PUSH1 0x0 REVERT JUMPDEST PUSH1 0x0 PUSH2 0x1510 DUP3 PUSH2 0xE07 JUMP JUMPDEST SWAP2 POP PUSH2 0x151B DUP4 PUSH2 0xE07 JUMP JUMPDEST SWAP3 POP DUP3 DUP3 ADD SWAP1 POP DUP1 DUP3 GT ISZERO PUSH2 0x1533 JUMPI PUSH2 0x1532 PUSH2 0x14D6 JUMP JUMPDEST JUMPDEST SWAP3 SWAP2 POP POP JUMP JUMPDEST PUSH32 0x4552523A204E4F542056414C494441544F520000000000000000000000000000 PUSH1 0x0 DUP3 ADD MSTORE POP JUMP JUMPDEST PUSH1 0x0 PUSH2 0x156F PUSH1 0x12 DUP4 PUSH2 0x10CF JUMP JUMPDEST SWAP2 POP PUSH2 0x157A DUP3 PUSH2 0x1539 JUMP JUMPDEST PUSH1 0x20 DUP3 ADD SWAP1 POP SWAP2 SWAP1 POP JUMP JUMPDEST PUSH1 0x0 PUSH1 0x20 DUP3 ADD SWAP1 POP DUP2 DUP2 SUB PUSH1 0x0 DUP4 ADD MSTORE PUSH2 0x159E DUP2 PUSH2 0x1562 JUMP JUMPDEST SWAP1 POP SWAP2 SWAP1 POP JUMP JUMPDEST PUSH32 0x4552523A20494E56414C49442050524F504F53414C0000000000000000000000 PUSH1 0x0 DUP3 ADD MSTORE POP JUMP JUMPDEST PUSH1 0x0 PUSH2 0x15DB PUSH1 0x15 DUP4 PUSH2 0x10CF JUMP JUMPDEST SWAP2 POP PUSH2 0x15E6 DUP3 PUSH2 0x15A5 JUMP JUMPDEST PUSH1 0x20 DUP3 ADD SWAP1 POP SWAP2 SWAP1 POP JUMP JUMPDEST PUSH1 0x0 PUSH1 0x20 DUP3 ADD SWAP1 POP DUP2 DUP2 SUB PUSH1 0x0 DUP4 ADD MSTORE PUSH2 0x160A DUP2 PUSH2 0x15CE JUMP JUMPDEST SWAP1 POP SWAP2 SWAP1 POP JUMP JUMPDEST PUSH1 0x0 PUSH1 0x40 DUP3 ADD SWAP1 POP PUSH2 0x1626 PUSH1 0x0 DUP4 ADD DUP6 PUSH2 0x101C JUMP JUMPDEST PUSH2 0x1633 PUSH1 0x20 DUP4 ADD DUP5 PUSH2 0xEEA JUMP JUMPDEST SWAP4 SWAP3 POP POP POP JUMP INVALID LOG2 PUSH5 0x6970667358 0x22 SLT KECCAK256 0xFB CALLCODE 0xCE DUP1 0xAC 0x2F DUP5 PUSH4 0xABAE3B1D PUSH9 0xEC8163B87EBB8777BA MUL ADDMOD JUMPI 0x23 0xD4 0xD6 DUP8 POP 0xBD PUSH0 PUSH5 0x736F6C6343 STOP ADDMOD EQ STOP CALLER "
        },
        "methodIdentifiers": {
          "addChainID(uint256)": "20c29bca",
          "addValidator(address)": "4d238c8e",
          "chainId()": "9a8a0592",
          "deposit(address,uint256,uint256)": "0efe6a8b",
          "getProposalID(bytes32,address,uint256,uint256,uint256)": "5d38bfb2",
          "isValidator(address)": "facd743b",
          "nonce()": "affed0e0",
          "propose(bytes32,address,uint256,uint256,uint256)": "bf1727cc",
          "proposer()": "a8e4fb90",
          "removeValidator(address)": "40a141ff",
          "setProposer(address)": "1fb4a228",
          "vote(bytes32)": "a69beaba",
          "voteThreshold()": "4fe437d5"
        }
      }
    }
  }
}